:100646007C2020204D7964657669636573202020BF
:100656007C2020544350204950204D6F6465202053
:100666007C2020204279205A59205869616F202029
:100676007C2020202020323031372D3720202020AA
:10068600002B2B2B007C2020204D79646576696336
:1006960065732020207C2020544350204950204D53
:1006A6006F646520207C202052657365742057692D
:1006B60066692020200041542B5253540020436F7A
:1006C6006E6E656374696E672E2E2E0041542B4341
:1006D600495053544152543D22544350222C223106
:1006E60039322E3136382E322E33222C35303030F8
:1006F600007C20436F6E6E6563746564207C0041E8
:10070600542B4349504D4F44453D310041542B43F2
:10071600495053454E440057616974696E672E2EE1
:100726002E004368616E6E656C20313A204F4E0094
:100736004368616E6E656C20313A204F4646004133
:10074600542B43574D4F44453D310D0A001082014D
:1007560000064D514973647003C2003C0024646373
:100766003737633232302D346438332D31316537C3
:100776002D393064632D636436333963613930391A
:100786006138002437373236316262302D346432B4
:10079600652D313165372D613163382D3033613345
:1007A60031306230376262320028366563646337FF
:1007B6003431393964346234336437633031633405
:1007C6006336343031363262373161623530613703
:1007D6003763825E0001005976312F373732363162
:1007E6006262302D346432652D313165372D6131C9
:1007F60063382D3033613331306230376262322FE5
:100806007468696E67732F64633737633232302DCD
:10081600346438332D313165372D393064632D63B7
:1008260064363339636139303961382F636D642F2B
:100836003200305D005A76312F37373236316262F8
:10084600302D346432652D313165372D6131633891
:100856002D3033613331306230376262322F746843
:10086600696E67732F64633737633232302D3464B1
:1008760038332D313165372D393064632D63643655
:100886003339636139303961382F646174612F00FF
:030896000000005F
:0611BA00016A01016B0057
:100A6000E4F552F5537A00795478547C00FD7BFF0D
:100A70007A087995FE7F021209697A0079567856CC
:100A80007C007D007BFF7A0879977E007F02120947
:100A90006975B5FF75B3FF75B60F7FE87E03121158
:100AA000A6D2B5C2B712117C1211F6120DC51210E2
:100AB000107BFF7A067946120C0C7F887E13121188
:100AC000A61211337BFF7A067987120F6F7F887E1B
:100AD000131211A6120DC51210107BFF7A06798B26
:100AE000120C0C7BFF7A0679BC120F6F7F0D12116E
:100AF000E87F0A1211E8E4FF1211E87F107E271246
:100B000011A6120EAF7F107E271211A6120DC5126C
:100B100010107BFF7A0679C3120C0CE4F54E7BFFB4
:100B20007A0679D2120F6F7F0D1211E87F0A121127
:100B3000E8E4FF1211E87F107E271211A6E54EB4FB
:100B40003805E4F54E80D4120DC51210107BFF7AE3
:100B50000679F7120C0C7F887E131211A67BFF7AA0
:100B6000077905120F6F7F0D1211E87F0A1211E845
:100B7000E4FF1211E87F887E131211A6120EAFE473
:100B8000F54E7BFF7A077912120F6F7F0D1211E875
:100B90007F0A1211E8E4FF1211E87F107E2712117C
:100BA000A6E54E64166006E4F54E020AC4E4F54E6E
:100BB00012117C120DC51210107BFF7A07791D12DD
:100BC0000C0C7F887E131211A6E54E64027037E587
:100BD0000864017023E5091392B7120DC5121010B5
:100BE000E509600B7BFF7A077928120C0C80097BE2
:100BF000FF7A077936120C0CE508700A7F107E2701
:0B0C00001211A6020AC4E4F54E80B7F2
:010C0B0022C6
:0411FB0075B60F2294
:1010DF00E4FFFEE4FDFC0DBD00010CED64134C704C
:0C10EF00F50FBF00010EEF640A4E70E721
:0110FB0022D2
:1011A600AB07AA06EB1BAE0270011A4E60051210C1
:0411B600DF80F122C3
:10111800E5B120E6037F0322E5B120E5037F022243
:0B112800E5B120E4037F01227F0022DC
:1010400075B1FE7FF47E011211A675B1FD7FF47EAD
:10105000011211A675B1FB7FF47E011211A675B1C4
:09106000F77FF47E011211A622B3
:1010690075B1F77FF47E011211A675B1FB7FF47E8D
:10107900011211A675B1FD7FF47E011211A675B199
:09108900FE7FF47E011211A62283
:10117C0075B1F07FF47E011211A675B1FF7FF47E7C
:05118C00011211A62272
:100EFD0079011211FB121118EF14600E1460071412
:100F0D00700A79038006790280027901E924FE6076
:100F1D000C14600E240270DD12104080D812117C6A
:090F2D0080D312106980CE80CC43
:010F36002298
:0511F600D290D291220D
:0611F000C29000C2912232
:0911C400D290D291C290C2912296
:0911CD00C291C290D291D290228D
:0911D600C290D291C291D2902284
:0911DF00D290D291C291D290226B
:10109200E4FEEF20E704C2908002D290D2910000D9
:1010A20000C291EF25E0FF0EBE08E7D290D2910078
:0710B200A290E433FFC2919C
:0110B9002214
:1010FC00E4FFFED291309003430701EEC3940750F6
:0B110C0004EF25E0FFC2910EBE08E8D2
:0111170022B5
:0311C000014E00DD
:1011330090E600740AF090E6087401F053877F7517
:091143009850D2ACD28CD2AF223C
:060F6F008B588A59895AD3
:100F7500E4F55BAB58AA59A95A121191C3E55B9FD9
:100F8500EE6480F87480985017AB58AA59A95A8511
:100F95005B8275830012098FFF1211E8055B80D310
:010FA5002229
:060FA6008B608A61896284
:100FAC00E4F563AB60AA61A962121191C3E5639F7A
:100FBC00EE6480F87480985017AB60AA61A96285C2
:100FCC00638275830012098FFF1211E8056380D3C9
:010FDC0022F2
:100E4300121010E4FF12114C7F1012114C7F40124C
:100E5300114C7FB012114CE4F566E566C3954E5014
:100E63004774082566F8E6FFC4540FF564EF540F82
:100E7300F565E564C3940A500AE5642430FF120F54
:100E8300378008E5642457FF120F37E565C3940ADA
:100E9300500AE5652430FF120F378008E5652457B3
:0B0EA300FF120F37056680B2E4F54E29
:010EAE002221
:100EAF00121010E4FF12114C7F1012114C7F4012E0
:100EBF00114C7FB012114CE4F55AE55AC3954E50C0
:100ECF00297408255AF8E6FF640D6009EF640A607B
:100EDF0004EFB40B077F20120F37800A7408255ACE
:0D0EEF00F8E6FF120F37055A80D0E4F54EEB
:010EFC0022D3
:1010BA00AB07AA067C017D001209BC8F993099FD05
:1010CA00C299AE02AF037C017D001209BC8D993032
:0510DA0099FDC29922FE
:0811E8008F993099FDC2992294
:03002300020FDDEC
:090FDD00C0E0C0D075D000C000D6
:100FE600309820C298E54EC3944650147408254E96
:100FF600F8A699054E7407254EF8E6B40A0580034F
:03100600754E0024
:07100900D000D0D0D0E0328E
:1000260000000000000000000000000000000000CA
:10003600000000000000005F005F000000000000FC
:100046000000000000030007000000070003000096
:10005600000000100074001C0077001C001700044C
:1000660000000024002E002A007F002A003A00101B
:100076000000004C006A0076001A006A0056003341
:1000860000000030007A004F005D0037007A00481B
:10009600000000000004000700030000000000004C
:1000A600000000000000001C003E0063004100004C
:1000B6000000000000410063003E001C000000003C
:1000C60000000008002A003E001C003E002A00082E
:1000D600000000080008003E003E0008000800007E
:1000E600000000000000006000600000000000004A
:1000F60000000008000800080008000800080000CA
:100106000000000000000060006000000000000029
:100116000000006000300018000C0006000300011B
:100126000000001C003E00610043003E001C000071
:10013600000000000044007F007F00400000000037
:1001460000000046006700710059004F006600007D
:100156000000002200630049004D007F00320000CD
:1001660000000018001C0052007F007F00500000B5
:100176000000002F006F00450045007D003900009B
:100186000000003C007E004B004900790030000072
:100196000000000700430071007D000F000300000F
:1001A60000000036007F004D0059007F0036000039
:1001B60000000006004F00490069003F001E0000D5
:1001C600000000000000006600660000000000005D
:1001D600000000000000006600660000000000004D
:1001E600000000000008001C00360063004100000B
:1001F6000000001400140014001400140014000081
:1002060000000000004100630036001C00080000EA
:1002160000000002000700510059000F0006000010
:100226000000003E0041005D0055005D0051001ECB
:10023600000000400070001D0017001F00780060DD
:1002460000000041007F007F0049004F007E003023
:100256000000001C003E00630041004100420027F0
:1002660000000041007F007F00410063003E001C4B
:1002760000000041007F007F0049005D00410063EF
:1002860000000041007F007F0049001D00010003BF
:100296000000001C003E0063004100510072007720
:1002A6000000007F007F00080008007F007F00003C
:1002B600000000000041007F007F004100000000B8
:1002C60000000030007000410041007F003F000147
:1002D6000000007F007F0008001C007700630041DB
:1002E60000000041007F007F004100400060007078
:1002F6000000007F007E000C0018000C007E007FCE
:100306000000007F007E000C00180030007F007F98
:100316000000001C003E006300410063003E001C1C
:1003260000000041007F007F00490009000F000621
:100336000000001C003E006300510063003E001CEC
:100346000000007F007F00090019007F0066004062
:1003560000000066006F004D0059007B003300006E
:10036600000000030041007F007F00410003000001
:100376000000003F007F004000400040007F003F3B
:1003860000000003000F003D0070001D0007000183
:100396000000000F007F0030001C0030007F000FBF
:1003A600000000630077001C001C0077006300005B
:1003B600000100030047007C0078004700030001AD
:1003C6000000006700730059004D006700730000CD
:1003D600000000000000007F007F00410041000097
:1003E6000000000100030006000C00180030006049
:1003F6000000000000410041007F007F0000000077
:1004060000000000000400060003000600040000CF
:1004160000000000000000000000000000000000D6
:1004260000000000000100030006000400000000B8
:1004360000000068006C00540054003C0078004046
:1004460000000041007F003F006C0044007C003843
:1004560000000038007C00440044006C002C0000C2
:1004660000000038007C00440049003F007F004047
:1004760000000038007C00540054005C0058000066
:10048600000000000048007E007F0049000B0002CB
:1004960000000048007C00340034002C0068004452
:1004A60000000041007F007F00080004007C007807
:1004B600000000000044007D007D004000000000B8
:1004C6000000006000600004007D007D0000000068
:1004D60000000041007F007F00100078006C00449F
:1004E600000000000041007F007F00400000000087
:1004F6000000007C007C000C0078000C007C00787A
:1005060000000044007C007C00080004007C0078A9
:1005160000000038007C00440044007C00380000E5
:1005260000000004007C007800240024003C001831
:1005360000000018003C002400240078007C000025
:1005460000000044007C0078004C0004001C0018E9
:1005560000000048005C005C007400740024000089
:10056600000000000004003E007F0044002400005C
:100576000000003C007C00400040003C007C004045
:1005860000000004001C003C00600030001C000459
:100596000000001C007C0030001C0030007C001CA9
:1005A60000000044006C003C00100078006C004421
:1005B60000000044004C001C00700064001C000C8D
:1005C6000000004C00640074005C004C00640000F5
:1005D600000000080008003E0077004100410000CE
:1005E600000000000000007F007F00000000000007
:1005F6000000004100410077003E000800080000AE
:1006060000000002000100010003000200020001D8
:10061600000000600078004E0047005E0078006031
:100626000000001C003E002300410041004200275C
:100636000000003D007D00400041003D007C004080
:10114C008F5F1211F07F78121092E4FF121092AFA1
:08115C005F1210921211CD2266
:101164008F5F1211F07F781210927F40121092AFAD
:081174005F1210921211CD224E
:100DC5007FAE12114C7FD512114C7F8012114C7FD2
:100DD500A812114C7F3F12114C7FD312114CE4FF26
:100DE50012114C7F4012114C7F8D12114C7F141241
:100DF500114C7F2012114CE4FF12114C7FA11211EE
:100E05004C7FC812114C7FDA12114C7F1212114C13
:100E15007F8112114C7FCF12114C7FD912114C7F5B
:100E2500F112114C7FDB12114C7F4012114C7FA443
:0E0E350012114C7FA612114C7FAF12114C22ED
:10101000E4FF12114C7F1012114C7F4012114C7FD3
:10102000B012114CE4F55BF55CE4FF121164055C51
:0F103000E55C7002055BC3E55B6480948440EA75
:01103F00228E
:020F37008F5BCE
:100F3900E4F55CE55B75F008A47C00255CFFEC3505
:100F4900F0FEEF25E0FFEE33FE74262FF58274FEE6
:100F59003EF583E493740193FF121164055CE55C2B
:050F6900C3940840CE16
:010F6E002260
:10000300E4FF12114C7F1012114C7F4012114CE48B
:0F001300FFFE0FBF00010EE4B507F7EEB404F3D4
:0100220022BB
:060C0C008B588A59895A39
:100C1200E4F55BF55CF55DF55EFF12114C7F101299
:100C2200114C7F4012114C7FB012114CE4F55BF570
:100C32005CAB58AA59A95A121191C3E55C9FEE64A4
:100C420080F8E55B6480984003020CF9AB58AA591E
:100C5200A95A855C82855B8312098FFF640D600946
:100C6200EF640A6004EFB40B36E4F55DF55EE55E11
:100C720025E0FFE55D33FE74262FF58274003EF514
:100C820083E493740193FF121164055EE55E7002C2
:100C9200055DC39408E55D6480948040D1804DE495
:100CA200F55DF55EAB58AA59A95A855C82855B83CE
:100CB20012098F75F008A4255EFFE55D35F0FEEFA1
:100CC20025E0FFEE33FE74262FF58274FE3EF58397
:100CD200E493740193FF121164055EE55E700205F0
:100CE2005DC39408E55D6480948040B8055CE55C72
:100CF2007002055B020C33E4F55BF55CAB58AA5954
:100D0200A95A121191EF7803C333CE33CED8F9FF2B
:100D1200C3E49FFF74049EFEC3E55C9FEE6480F80B
:100D2200E55B648098500FE4FF121164055CE55C9A
:060D32007002055B80C6A3
:010D38002298
:03000000020D39B5
:0C0D3900787FE4F6D8FD75816D020D8016
:10089900E709F608DFFA8046E709F208DFFA803E41
:1008A90088828C83E709F0A3DFFA8032E309F6082E
:1008B900DFFA8078E309F208DFFA807088828C8396
:1008C900E309F0A3DFFA806489828A83E0A3F6084A
:1008D900DFFA805889828A83E0A3F208DFFA804C24
:1008E90080D280FA80C680D4806980F280338010FB
:1008F90080A680EA809A80A880DA80E280CA803364
:1009090089828A83ECFAE493A3C8C582C8CCC583DB
:10091900CCF0A3C8C582C8CCC583CCDFE9DEE780AB
:100929000D89828A83E493A3F608DFF9ECFAA9F02A
:10093900EDFB2289828A83ECFAE0A3C8C582C8CC80
:10094900C583CCF0A3C8C582C8CCC583CCDFEADE99
:10095900E880DB89828A83E493A3F208DFF980CCFB
:1009690088F0EF60010E4E60C388F0ED2402B404F4
:100979000050B9F582EB2402B4040050AF2323459B
:0609890082239008E973CF
:10098F00BB010CE58229F582E5833AF583E022501D
:10099F0006E92582F8E622BBFE06E92582F8E22267
:0D09AF00E58229F582E5833AF583E4932281
:1009BC00C2D5EC30E709B2D5E4C39DFDE49CFCEE56
:1009CC0030E715B2D5E4C39FFFE49EFE120A0BC3B9
:1009DC00E49DFDE49CFC8003120A0B30D507C3E4B4
:0609EC009FFFE49EFE22C5
:10119100E4FFFE1209F2600C0FEF70010E09E97015
:0511A100F20A80EF22BC
:100D4500020A60E493A3F8E493A34003F68001F25A
:100D550008DFF48029E493A3F85407240CC8C333AF
:100D6500C4540F4420C8834004F456800146F6DF7E
:100D7500E4800B01020408102040809011BAE47E43
:100D8500019360BCA3FF543F30E509541FFEE49373
:100D9500A360010ECF54C025E060A840B8E493A33A
:100DA500FAE493A3F8E493A3C8C582C8CAC583CA65
:100DB500F0A3C8C582C8CAC583CADFE9DEE780BE1D
:0111C300002B
:1009F200BB010689828A83E0225002E722BBFE0203
:090A0200E32289828A83E4932235
:100A0B00BC000BBE0029EF8DF084FFADF022E4CCCF
:100A1B00F875F008EF2FFFEE33FEEC33FCEE9DEC98
:100A2B00984005FCEE9DFE0FD5F0E9E4CEFD22EDDE
:100A3B00F8F5F0EE8420D21CFEADF075F008EF2F28
:100A4B00FFED33FD4007985006D5F0F222C398FD19
:050A5B000FD5F0EA22B6
:00000001FF
