:1009A6007C2020204D79646576696365732020205C
:1009B6007C202054656D7020207C202020427920E8
:1009C6005A59205869616F20207C2020202020322F
:1009D6003031372D313020202020002B2B2B007C6E
:1009E6002020204D79646576696365732020207C1C
:1009F6002020554450202020204D6F646520207C07
:100A0600202052657365742057696669202020008E
:100A160041542B5253540041542B4349504D555881
:100A26003D310041542B43495053544152543D30BB
:100A36002C22554450222C223139322E3136382E72
:100A4600322E33222C343434352C343434352C3293
:100A5600004368616E6E656C20313A204F4E00434C
:0E0A660068616E6E656C20313A204F46460086
:060EF500016A01016B001F
:10064600E4F552F553F554F555F556F55775B5FFDE
:1006560075B3FF75B60F7FE87E03120EE1D2B5C201
:10066600B7120EB7120F31120B00120D4B7BFF7A29
:100676000979A61207A880FE7BFF7A0979E1120C98
:10068600AA7F887E13120EE1120B00120D4B7BFF20
:100696007A0979E51207A87BFF7A0A7916120CAA5D
:1006A6007F0D120F237F0A120F23E4FF120F237F01
:1006B600107E27120EE1120BEA7F887E13120EE1DE
:1006C600E4F54E7BFF7A0A791D120CAA7F0D120FF4
:1006D600237F0A120F23E4FF120F237F887E131253
:1006E6000EE1120BEA7FE87E03120EE17BFF7A0A27
:1006F6007929120CAA7F0D120F237F0A120F23E409
:10070600FF120F237FB87E0B120EE1120BEA7FE871
:100716007E03120EE1E4F554F555120E53EF6029EF
:10072600B2B76357FF6356FFE5574556600B7BFF2D
:100736007A0A79571207A880097BFF7A0A79651227
:1007460007A87FF47E01120EE10555E555700205F6
:1007560054C39464E5546480948040BEE54EB40F5F
:10076600B42407F8E61392B7120B00120D4B740768
:10077600254EF8E624D0600B7BFF7A0A79571207DC
:10078600A880097BFF7A0A79651207A87407254EA7
:10079600F8E624D0F557E434FFF556E4F54E0207A3
:0107A6001B37
:0107A700222F
:050F3100D290D29122D4
:060F2B00C29000C29122F9
:090EFF00D290D291C290C291225E
:090F0800C291C290D291D2902254
:090F1100C290D291C291D290224B
:090F1A00D290D291C291D2902232
:100DCD00E4FEEF20E704C2908002D290D2910000A1
:100DDD0000C291EF25E0FF0EBE08E7D290D2910040
:070DED00A290E433FFC29164
:010DF40022DC
:100E3700E4FFFED291309003430701EEC3940750BD
:0B0E470004EF25E0FFC2910EBE08E89A
:010E5200227D
:030EFB00014E00A5
:100E6E0090E600740AF090E6087401F053877F75DF
:090E7E009850D2ACD28CD2AF2204
:060CAA008B588A59895A9B
:100CB000E4F55BAB58AA59A95A120ECCC3E55B9F69
:100CC000EE6480F87480985017AB58AA59A95A85D9
:100CD0005B827583001208D5FF120F23055B80D35A
:010CE00022F1
:060CE1008B608A6189624C
:100CE700E4F563AB60AA61A962120ECCC3E5639F0A
:100CF700EE6480F87480985017AB60AA61A962858A
:100D070063827583001208D5FF120F23056380D312
:010D170022B9
:100B7E00120D4BE4FF120E877F10120E877F40126C
:100B8E000E877FB0120E87E4F566E566C3954E506C
:100B9E004774082566F8E6FFC4540FF564EF540F4A
:100BAE00F565E564C3940A500AE5642430FF120C1F
:100BBE00728008E5642457FF120C72E565C3940A2F
:100BCE00500AE5652430FF120C728008E565245743
:0B0BDE00FF120C72056680B2E4F54EB9
:010BE90022E9
:100BEA00120D4BE4FF120E877F10120E877F401200
:100BFA000E877FB0120E87E4F55AE55AC3954E5018
:100C0A00297408255AF8E6FF640D6009EF640A6042
:100C1A0004EFB40B077F20120C72800A7408255A5D
:0D0C2A00F8E6FF120C72055A80D0E4F54E7A
:010C3700229A
:100DF500AB07AA067C017D001209028F993099FD87
:100E0500C299AE02AF037C017D001209028D9930B3
:050E150099FDC29922C5
:080F23008F993099FDC299225B
:03002300020D18B3
:090D1800C0E0C0D075D000C0009D
:100D2100309820C298E54EC3944650147408254E5D
:100D3100F8A699054E7407254EF8E6B40A05800316
:030D4100754E00EC
:070D4400D000D0D0D0E03256
:1000260000000000000000000000000000000000CA
:10003600000000000000005F005F000000000000FC
:100046000000000000030007000000070003000096
:10005600000000100074001C0077001C001700044C
:1000660000000024002E002A007F002A003A00101B
:100076000000004C006A0076001A006A0056003341
:1000860000000030007A004F005D0037007A00481B
:10009600000000000004000700030000000000004C
:1000A600000000000000001C003E0063004100004C
:1000B6000000000000410063003E001C000000003C
:1000C60000000008002A003E001C003E002A00082E
:1000D600000000080008003E003E0008000800007E
:1000E600000000000000006000600000000000004A
:1000F60000000008000800080008000800080000CA
:100106000000000000000060006000000000000029
:100116000000006000300018000C0006000300011B
:100126000000001C003E00610043003E001C000071
:10013600000000000044007F007F00400000000037
:1001460000000046006700710059004F006600007D
:100156000000002200630049004D007F00320000CD
:1001660000000018001C0052007F007F00500000B5
:100176000000002F006F00450045007D003900009B
:100186000000003C007E004B004900790030000072
:100196000000000700430071007D000F000300000F
:1001A60000000036007F004D0059007F0036000039
:1001B60000000006004F00490069003F001E0000D5
:1001C600000000000000006600660000000000005D
:1001D600000000000000006600660000000000004D
:1001E600000000000008001C00360063004100000B
:1001F6000000001400140014001400140014000081
:1002060000000000004100630036001C00080000EA
:1002160000000002000700510059000F0006000010
:100226000000003E0041005D0055005D0051001ECB
:10023600000000400070001D0017001F00780060DD
:1002460000000041007F007F0049004F007E003023
:100256000000001C003E00630041004100420027F0
:1002660000000041007F007F00410063003E001C4B
:1002760000000041007F007F0049005D00410063EF
:1002860000000041007F007F0049001D00010003BF
:100296000000001C003E0063004100510072007720
:1002A6000000007F007F00080008007F007F00003C
:1002B600000000000041007F007F004100000000B8
:1002C60000000030007000410041007F003F000147
:1002D6000000007F007F0008001C007700630041DB
:1002E60000000041007F007F004100400060007078
:1002F6000000007F007E000C0018000C007E007FCE
:100306000000007F007E000C00180030007F007F98
:100316000000001C003E006300410063003E001C1C
:1003260000000041007F007F00490009000F000621
:100336000000001C003E006300510063003E001CEC
:100346000000007F007F00090019007F0066004062
:1003560000000066006F004D0059007B003300006E
:10036600000000030041007F007F00410003000001
:100376000000003F007F004000400040007F003F3B
:1003860000000003000F003D0070001D0007000183
:100396000000000F007F0030001C0030007F000FBF
:1003A600000000630077001C001C0077006300005B
:1003B600000100030047007C0078004700030001AD
:1003C6000000006700730059004D006700730000CD
:1003D600000000000000007F007F00410041000097
:1003E6000000000100030006000C00180030006049
:1003F6000000000000410041007F007F0000000077
:1004060000000000000400060003000600040000CF
:1004160000000000000000000000000000000000D6
:1004260000000000000100030006000400000000B8
:1004360000000068006C00540054003C0078004046
:1004460000000041007F003F006C0044007C003843
:1004560000000038007C00440044006C002C0000C2
:1004660000000038007C00440049003F007F004047
:1004760000000038007C00540054005C0058000066
:10048600000000000048007E007F0049000B0002CB
:1004960000000048007C00340034002C0068004452
:1004A60000000041007F007F00080004007C007807
:1004B600000000000044007D007D004000000000B8
:1004C6000000006000600004007D007D0000000068
:1004D60000000041007F007F00100078006C00449F
:1004E600000000000041007F007F00400000000087
:1004F6000000007C007C000C0078000C007C00787A
:1005060000000044007C007C00080004007C0078A9
:1005160000000038007C00440044007C00380000E5
:1005260000000004007C007800240024003C001831
:1005360000000018003C002400240078007C000025
:1005460000000044007C0078004C0004001C0018E9
:1005560000000048005C005C007400740024000089
:10056600000000000004003E007F0044002400005C
:100576000000003C007C00400040003C007C004045
:1005860000000004001C003C00600030001C000459
:100596000000001C007C0030001C0030007C001CA9
:1005A60000000044006C003C00100078006C004421
:1005B60000000044004C001C00700064001C000C8D
:1005C6000000004C00640074005C004C00640000F5
:1005D600000000080008003E0077004100410000CE
:1005E600000000000000007F007F00000000000007
:1005F6000000004100410077003E000800080000AE
:1006060000000002000100010003000200020001D8
:10061600000000600078004E0047005E0078006031
:100626000000001C003E002300410041004200275C
:100636000000003D007D00400041003D007C004080
:100E87008F5F120F2B7F78120DCDE4FF120DCDAFC0
:080E97005F120DCD120F0822BD
:100E9F008F5F120F2B7F78120DCD7F40120DCDAFCC
:080EAF005F120DCD120F0822A5
:100B00007FAE120E877FD5120E877F80120E877FF1
:100B1000A8120E877F3F120E877FD3120E87E4FF45
:100B2000120E877F40120E877F8D120E877F141260
:100B30000E877F20120E87E4FF120E877FA1120E10
:100B4000877FC8120E877FDA120E877F12120E87F8
:100B50007F81120E877FCF120E877FD9120E877F7B
:100B6000F1120E877FDB120E877F40120E877FA463
:0E0B7000120E877FA6120E877FAF120E87220D
:100D4B00E4FF120E877F10120E877F40120E877FF3
:100D5B00B0120E87E4F55BF55CE4FF120E9F055CA9
:0F0D6B00E55C7002055BC3E55B6480948440EA3D
:010D7A002256
:020C72008F5B96
:100C7400E4F55CE55B75F008A47C00255CFFEC35CD
:100C8400F0FEEF25E0FFEE33FE74262FF58274FEAE
:100C94003EF583E493740193FF120E9F055CE55CBB
:050CA400C3940840CEDE
:010CA9002228
:10000300E4FF120E877F10120E877F40120E87E4E3
:0F001300FFFE0FBF00010EE4B507F7EEB404F3D4
:0100220022BB
:0607A8008B588A59895AA2
:1007AE00E4F55BF55CF55DF55EFF120E877F1012CA
:1007BE000E877F40120E877FB0120E87E4F55BF531
:1007CE005CAB58AA59A95A120ECCC3E55C9FEE64D5
:1007DE0080F8E55B6480984003020895AB58AA59EF
:1007EE00A95A855C82855B831208D5FF640D60096A
:1007FE00EF640A6004EFB40B36E4F55DF55EE55E7A
:10080E0025E0FFE55D33FE74262FF58274003EF57C
:10081E0083E493740193FF120E9F055EE55E7002F2
:10082E00055DC39408E55D6480948040D1804DE4FD
:10083E00F55DF55EAB58AA59A95A855C82855B8336
:10084E001208D575F008A4255EFFE55D35F0FEEFC4
:10085E0025E0FFEE33FE74262FF58274FE3EF583FF
:10086E00E493740193FF120E9F055EE55E70020520
:10087E005DC39408E55D6480948040B8055CE55CDA
:10088E007002055B0207CFE4F55BF55CAB58AA5925
:10089E00A95A120ECCEF7803C333CE33CED8F9FF5C
:1008AE00C3E49FFF74049EFEC3E55C9FEE6480F874
:1008BE00E55B648098500FE4FF120E9F055CE55CCB
:0608CE007002055B80C60C
:0108D4002201
:040F360075B60F225B
:100E1A00E4FFFEE4FDFC0DBD00010CED64134C7013
:0C0E2A00F50FBF00010EEF640A4E70E7E8
:010E36002299
:100EE100AB07AA06EB1BAE0270011A4E6005120E8B
:040EF1001A80F12250
:100E5300E5B120E6037F0322E5B120E5037F02220B
:0B0E6300E5B120E4037F01227F0022A4
:100D7B0075B1FE7FF47E01120EE175B1FD7FF47E3D
:100D8B0001120EE175B1FB7FF47E01120EE175B11C
:090D9B00F77FF47E01120EE12243
:100DA40075B1F77FF47E01120EE175B1FB7FF47E1D
:100DB40001120EE175B1FD7FF47E01120EE175B1F1
:090DC400FE7FF47E01120EE12213
:100EB70075B1F07FF47E01120EE175B1FF7FF47E0C
:050EC70001120EE12202
:100C38007901120F36120E53EF14600E1460071468
:100C4800700A79038006790280027901E924FE603E
:100C58000C14600E240270DD120D7B80D8120EB7C2
:090C680080D3120DA480CE80CCD3
:010C71002260
:03000000020A747D
:0C0A7400787FE4F6D8FD75816D020ABBA6
:1008D500BB010CE58229F582E5833AF583E02250D8
:1008E50006E92582F8E622BBFE06E92582F8E22222
:0D08F500E58229F582E5833AF583E493223C
:10090200C2D5EC30E709B2D5E4C39DFDE49CFCEE10
:1009120030E715B2D5E4C39FFFE49EFE120951C32E
:10092200E49DFDE49CFC800312095130D507C3E429
:060932009FFFE49EFE227F
:100ECC00E4FFFE120938600C0FEF70010E09E97097
:050EDC00F20A80EF2284
:100A8000020646E493A3F8E493A34003F68001F240
:100A900008DFF48029E493A3F85407240CC8C33377
:100AA000C4540F4420C8834004F456800146F6DF46
:100AB000E4800B0102040810204080900EF5E47ED3
:100AC000019360BCA3FF543F30E509541FFEE4933B
:100AD000A360010ECF54C025E060A840B8E493A302
:100AE000FAE493A3F8E493A3C8C582C8CAC583CA2D
:100AF000F0A3C8C582C8CAC583CADFE9DEE780BEE5
:010EFE0000F3
:10093800BB010689828A83E0225002E722BBFE02BD
:09094800E32289828A83E49322F0
:10095100BC000BBE0029EF8DF084FFADF022E4CC8A
:10096100F875F008EF2FFFEE33FEEC33FCEE9DEC53
:10097100984005FCEE9DFE0FD5F0E9E4CEFD22ED99
:10098100F8F5F0EE8420D21CFEADF075F008EF2FE3
:10099100FFED33FD4007985006D5F0F222C398FDD4
:0509A1000FD5F0EA2271
:00000001FF
