:1009E2005A6869796F6E67205869616F0041542BAC
:1009F2005253540041542B43495053544152543D95
:100A020022544350222C223139322E3136382E32A2
:100A12002E32222C383038300041542B4349504D6D
:100A22004F44453D310041542B43495053454E44B8
:100A32000048616861680041542B43574D4F44455B
:050A42003D310D0A002A
:1007C80075B5FF75B3FF75B60F7FE87E03120D2B65
:1007D800C2B7120D01120D71120964120B9F7BFF33
:1007E8007A0979E21206A07F887E13120D2B120C6B
:1007F800B87BFF7A0979EF120AFD7F0D120D637F2E
:100808000A120D63E4FF120D637F707E17120D2B21
:10081800120B9FE4FF120CD17F10120CD17F4012F3
:100828000CD1120B347BFF7A0979F6120AFD7F0D81
:10083800120D637F0A120D63E4FF120D637FB87E09
:100848000B120D2B120B9FE4FF120CD17F10120C10
:10085800D17F40120CD1120B347BFF7A0A791B121C
:100868000AFD7F0D120D637F0A120D63E4FF120D5E
:10087800637FB87E0B120D2B120B9FE4FF120CD175
:100888007F10120CD17F40120CD1120B347BFF7AEF
:100898000A7928120AFD7F0D120D637F0A120D6373
:1008A800E4FF120D637FB87E0B120D2B120B9FE431
:1008B800FF120CD17F10120CD17F40120CD1120BF9
:0F08C800347BFF7A0A7933120AFD120D0180FE8C
:0108D70022FE
:040D760075B60F221D
:100C6400E4FFFEE4FDFC0DBD00010CED64134C70CB
:0C0C7400F50FBF00010EEF640A4E70E7A0
:010C80002251
:100D2B00AB07AA06EB1BAE0270011A4E6005120C44
:040D3B006480F122BD
:100C9D00E5B120E6037F0322E5B120E5037F0222C3
:0B0CAD00E5B120E4037F01227F00225C
:100BCA0075B1FE7FF47E01120D2B75B1FD7FF47EA7
:100BDA0001120D2B75B1FB7FF47E01120D2B75B13D
:090BEA00F77FF47E01120D2B22AD
:100BF30075B1F77FF47E01120D2B75B1FB7FF47E87
:100C030001120D2B75B1FD7FF47E01120D2B75B111
:090C1300FE7FF47E01120D2B227C
:100D010075B1F07FF47E01120D2B75B1FF7FF47E7A
:050D110001120D2B2270
:100A8D007901120D76120C9DEF14600E146007148F
:100A9D00700A79038006790280027901E924FE60EB
:100AAD000C14600E240270DD120BCA80D8120D01D9
:070ABD0080D3120BF380CE81
:010AC400220F
:050D7100D290D2912296
:060D6B00C29000C29122BB
:090D3F00D290D291C290C291221F
:090D4800C291C290D291D2902216
:090D5100C290D291C291D290220D
:090D5A00D290D291C291D29022F4
:100C1C00E4FEEF20E704C2908002D290D291000053
:100C2C0000C291EF25E0FF0EBE08E7D290D29100F2
:070C3C00A290E433FFC29116
:010C4300228E
:100C8100E4FFFED291309003430701EEC394075075
:0B0C910004EF25E0FFC2910EBE08E852
:010C9C002235
:030D7A00013A003B
:100CB80090E600740AF090E6087401F053877F7597
:090CC8009850D2ACD28CD2AF22BC
:060AFD008B3F8A40894195
:100B0300E4F542AB3FAA40A941120D16C3E5429F4B
:100B1300EE6480F87480985017AB3FAA40A94185D2
:100B23004282758300120A47FF120D63054280D388
:010B3300229F
:100B3400E4F541E541C3953A502974082541F8E6A6
:100B4400FF640D6009EF640A6004EFB40B077F20B3
:100B5400120AC5800A74082541F8E6FF120AC50581
:060B64004180D0E4F53AE7
:010B6A002268
:080D63008F993099FDC299221D
:03002300020B6B62
:0B0B6B00C0E0C0D075D000C000C00783
:100B760030981DC2987408253AF8A699053A740764
:100B8600253AF8E6FFB4FF02D2B7EFB4FE02C2B7C9
:090B9600D007D000D0D0D0E0322D
:100080000000000000000000000000000000000070
:10009000000000000000005F005F000000000000A2
:1000A000000000000003000700000007000300003C
:1000B000000000100074001C0077001C00170004F2
:1000C00000000024002E002A007F002A003A0010C1
:1000D0000000004C006A0076001A006A00560033E7
:1000E00000000030007A004F005D0037007A0048C1
:1000F00000000000000400070003000000000000F2
:10010000000000000000001C003E006300410000F1
:100110000000000000410063003E001C00000000E1
:1001200000000008002A003E001C003E002A0008D3
:10013000000000080008003E003E00080008000023
:1001400000000000000000600060000000000000EF
:10015000000000080008000800080008000800006F
:1001600000000000000000600060000000000000CF
:100170000000006000300018000C000600030001C1
:100180000000001C003E00610043003E001C000017
:10019000000000000044007F007F004000000000DD
:1001A00000000046006700710059004F0066000023
:1001B0000000002200630049004D007F0032000073
:1001C00000000018001C0052007F007F005000005B
:1001D0000000002F006F00450045007D0039000041
:1001E0000000003C007E004B004900790030000018
:1001F0000000000700430071007D000F00030000B5
:1002000000000036007F004D0059007F00360000DE
:1002100000000006004F00490069003F001E00007A
:100220000000000000000066006600000000000002
:1002300000000000000000660066000000000000F2
:10024000000000000008001C0036006300410000B0
:100250000000001400140014001400140014000026
:1002600000000000004100630036001C0008000090
:1002700000000002000700510059000F00060000B6
:100280000000003E0041005D0055005D0051001E71
:10029000000000400070001D0017001F0078006083
:1002A00000000041007F007F0049004F007E0030C9
:1002B0000000001C003E0063004100410042002796
:1002C00000000041007F007F00410063003E001CF1
:1002D00000000041007F007F0049005D0041006395
:1002E00000000041007F007F0049001D0001000365
:1002F0000000001C003E00630041005100720077C6
:100300000000007F007F00080008007F007F0000E1
:10031000000000000041007F007F0041000000005D
:1003200000000030007000410041007F003F0001EC
:100330000000007F007F0008001C00770063004180
:1003400000000041007F007F00410040006000701D
:100350000000007F007E000C0018000C007E007F73
:100360000000007F007E000C00180030007F007F3E
:100370000000001C003E006300410063003E001CC2
:1003800000000041007F007F00490009000F0006C7
:100390000000001C003E006300510063003E001C92
:1003A0000000007F007F00090019007F0066004008
:1003B00000000066006F004D0059007B0033000014
:1003C000000000030041007F007F004100030000A7
:1003D0000000003F007F004000400040007F003FE1
:1003E00000000003000F003D0070001D0007000129
:1003F0000000000F007F0030001C0030007F000F65
:10040000000000630077001C001C00770063000000
:10041000000100030047007C007800470003000152
:100420000000006700730059004D00670073000072
:10043000000000000000007F007F0041004100003C
:100440000000000100030006000C001800300060EE
:100450000000000000410041007F007F000000001C
:100460000000000000040006000300060004000075
:10047000000000000000000000000000000000007C
:10048000000000000001000300060004000000005E
:1004900000000068006C00540054003C00780040EC
:1004A00000000041007F003F006C0044007C0038E9
:1004B00000000038007C00440044006C002C000068
:1004C00000000038007C00440049003F007F0040ED
:1004D00000000038007C00540054005C005800000C
:1004E000000000000048007E007F0049000B000271
:1004F00000000048007C00340034002C00680044F8
:1005000000000041007F007F00080004007C0078AC
:10051000000000000044007D007D0040000000005D
:100520000000006000600004007D007D000000000D
:1005300000000041007F007F00100078006C004444
:10054000000000000041007F007F0040000000002C
:100550000000007C007C000C0078000C007C00781F
:1005600000000044007C007C00080004007C00784F
:1005700000000038007C00440044007C003800008B
:1005800000000004007C007800240024003C0018D7
:1005900000000018003C002400240078007C0000CB
:1005A00000000044007C0078004C0004001C00188F
:1005B00000000048005C005C00740074002400002F
:1005C000000000000004003E007F00440024000002
:1005D0000000003C007C00400040003C007C0040EB
:1005E00000000004001C003C00600030001C0004FF
:1005F0000000001C007C0030001C0030007C001C4F
:1006000000000044006C003C00100078006C0044C6
:1006100000000044004C001C00700064001C000C32
:100620000000004C00640074005C004C006400009A
:10063000000000080008003E007700410041000073
:10064000000000000000007F007F000000000000AC
:100650000000004100410077003E00080008000053
:10066000000000020001000100030002000200017E
:10067000000000600078004E0047005E00780060D7
:100680000000001C003E0023004100410042002702
:100690000000003D007D00400041003D007C004026
:100CD1008F46120D6B7F78120C1CE4FF120C1CAFB7
:080CE10046120C1C120D482202
:100CE9008F46120D6B7F78120C1C7F40120C1CAFC3
:080CF90046120C1C120D4822EA
:100964007FAE120CD17FD5120CD17F80120CD17FB7
:10097400A8120CD17F3F120CD17FD3120CD1E4FF0B
:10098400120CD17F40120CD17F8D120CD17F141226
:100994000CD17F20120CD1E4FF120CD17FA1120CD8
:1009A400D17FC8120CD17FDA120CD17F12120CD174
:1009B4007F81120CD17FCF120CD17FD9120CD17F41
:1009C400F1120CD17FDB120CD17F40120CD17FA429
:0E09D400120CD17FA6120CD17FAF120CD122D3
:100B9F00E4FF120CD17F10120CD17F40120CD1E464
:100BAF00F53FF540E4FF120CE90540E54070020502
:0A0BBF003FC3E53F6480948440EAE0
:010BC9002209
:020AC5008F425E
:100AC700E4F543E54275F008A47C002543FFEC35C7
:100AD700F0FEEF25E0FFEE33FE74802FF58274FE03
:100AE7003EF583E493740193FF120CE90543E54354
:050AF700C3940840CE8D
:010AFC0022D7
:100C4400E4FF120CD17F10120CD17F40120CD1E4BE
:0F0C5400FFFE0FBF00010EE4B507F7EEB404F387
:010C6300226E
:0606A0008B3F8A408941F6
:1006A600E4F542F543F544F545FF120CD17F1012EF
:1006B6000CD17F40120CD1E4F542F543AB3FAA4082
:1006C600A941120D16C3E5439FEE6480F8E5426426
:1006D60080984003020788AB3FAA40A94185438220
:1006E600854283120A47FF640D6009EF640A6004BD
:1006F600EFB40B36E4F544F545E54525E0FFE54462
:1007060033FE74802FF58274003EF583E493740102
:1007160093FF120CE90545E54570020544C39408AC
:10072600E5446480948040D1804DE4F544F545ABC2
:100736003FAA40A941854382854283120A4775F044
:1007460008A42545FFE54435F0FEEF25E0FFEE332E
:10075600FE74802FF58274FE3EF583E49374019354
:10076600FF120CE90545E54570020544C39408E50A
:10077600446480948040B80543E543700205420214
:1007860006C2E4F542F543AB3FAA40A941120D1655
:10079600EF7803C333CE33CED8F9FFC3E49FFF749B
:1007A600049EFEC3E5439FEE6480F8E542648098AC
:1007B600500FE4FF120CE90543E543700205428041
:0107C600C66C
:0107C700220F
:030000000208D81B
:0C08D800787FE4F6D8FD75814B02091F03
:100A4700BB010CE58229F582E5833AF583E0225064
:100A570006E92582F8E622BBFE06E92582F8E222AE
:0D0A6700E58229F582E5833AF583E49322C8
:100D1600E4FFFE120A74600C0FEF70010E09E97011
:050D2600F20A80EF223B
:1008E4000207C8E493A3F8E493A34003F68001F25B
:1008F40008DFF48029E493A3F85407240CC8C33315
:10090400C4540F4420C8834004F456800146F6DFE3
:10091400E4800B0102040810204080900D7AE47EEC
:10092400019360BCA3FF543F30E509541FFEE493D8
:10093400A360010ECF54C025E060A840B8E493A39F
:10094400FAE493A3F8E493A3C8C582C8CAC583CACA
:10095400F0A3C8C582C8CAC583CADFE9DEE780BE82
:010D7D000075
:100A7400BB010689828A83E0225002E722BBFE0280
:090A8400E32289828A83E49322B3
:00000001FF
