:100646005A6869796F6E67205869616F002B2B2B8A
:100656000041542B5253540041542B434950535498
:100666004152543D22544350222C226D7174742EF3
:100676006D79646576696365732E636F6D222C31BF
:100686003838330041542B4349504D4F44453D3192
:100696000041542B43495053454E440041542B438B
:1006A600574D4F44453D310D0A00373732363162DA
:1006B60062302D346432652D313165372D613163F9
:1006C600382D303361333130623037626232003672
:1006D600656364633734313939643462343364377B
:1006E60063303163346336343031363262373161E8
:1006F60062353061373763006463373763323230CF
:100706002D346438332D313165372D393064632DFE
:1007160063643633396361393039613800108201D8
:1007260000064D514973647003C2003C00246463A3
:100736003737633232302D346438332D31316537F3
:100746002D393064632D636436333963613930394A
:100756006138002437373236316262302D346432E4
:10076600652D313165372D613163382D3033613375
:10077600313062303762623200283665636463372F
:100786003431393964346234336437633031633435
:100796006336343031363262373161623530613733
:1007A6003763825E0001005976312F373732363192
:1007B6006262302D346432652D313165372D6131F9
:1007C60063382D3033613331306230376262322F15
:1007D6007468696E67732F64633737633232302DFE
:1007E600346438332D313165372D393064632D63E8
:1007F60064363339636139303961382F636D642F5C
:100806003200305D005A76312F3737323631626228
:10081600302D346432652D313165372D61316338C1
:100826002D3033613331306230376262322F746873
:10083600696E67732F64633737633232302D3464E1
:1008460038332D313165372D393064632D63643685
:100856003339636139303961382F646174612F002F
:030866000000008F
:0312E10001710197
:10114E00E4F558F558E55890080893FF1212D905A2
:10115E0058E558C3945D40ED7F351212D97F301299
:02116E0012D994
:01117000225C
:10117100E4F558F558E55890080893FF1212D9057F
:1011810058E558C3945D40ED7F351212D97F311275
:0211910012D971
:011193002239
:10119400E4F558F558E55890080893FF1212D9055C
:1011A40058E558C3945D40ED7F361212D97F301252
:0211B40012D94E
:0111B6002216
:1011B700E4F558F558E55890080893FF1212D90539
:1011C70058E558C3945D40ED7F361212D97F35122A
:0211D70012D92B
:0111D90022F3
:100A5200E4F552F5537A00795478547C00FD7BFF1B
:100A62007A087965FE7F021209397A00795678563A
:100A72007C007D007BFF7A0879677E007F02120985
:100A82003975B5FF75B3FF75B60F7FE87E03121295
:100A9200A1D2B51212771212EE120DCD12107F7B77
:100AA200FF7A067946120C1412122E7BFF7A06790F
:100AB20053120FDE7F887E131212A17BFF7A067912
:100AC20057120FDE7F0D1212D97F0A1212D9E4FFDC
:100AD2001212D97F107E271212A1120F1E7F987E4A
:100AE2003A1212A1120F1E7BFF7A06795E120FDEF6
:100AF2007F0D1212D97F0A1212D9E4FF1212D97F86
:100B0200107E271212A1120F1E7BFF7A06798A121B
:100B12000FDE7F0D1212D97F0A1212D9E4FF1212D0
:100B2200D97F107E271212A1120F1E7BFF7A06793F
:100B320097120FDE7F0D1212D97F0A1212D9E4FF2B
:100B42001212D97F107E271212A1120F1EE4F55243
:100B5200F55374232553F58274073552F583E493D4
:100B6200FF1212D90553E55370020552C39485E56D
:100B7200526480948040DB7F107E271212A1120EF5
:100B82004B7F107E271212A1E4F552F55374A8256B
:100B920053F58274073552F583E493FF1212D90597
:100BA20053E55370020552C39460E5526480948009
:100BB20040DB7F107E271212A1120E4B7F107E2780
:100BC2001212A1E54EB4271A852E08E508B43007A3
:100BD200C2B7E4F5718005D2B7757101754E011285
:100BE2000F1E12114EE571B401051211B7800312E6
:100BF20011947F467E001212A1120E4B7FA27E0339
:100C02001212A11211717FE87E031212A180B48028
:010C1200FEE3
:010C130022BE
:0412F30075B60F229B
:1011DA00E4FFFEE4FDFC0DBD00010CED64134C7050
:0C11EA00F50FBF00010EEF640A4E70E725
:0111F60022D6
:1012A100AB07AA06EB1BAE0270011A4E60051211C4
:0412B100DA80F122CC
:10121300E5B120E6037F0322E5B120E5037F022247
:0B122300E5B120E4037F01227F0022E0
:1010AF0075B1FE7FF47E011212A175B1FD7FF47E42
:1010BF00011212A175B1FB7FF47E011212A175B15D
:0910CF00F77FF47E011212A12248
:1010D80075B1F77FF47E011212A175B1FB7FF47E22
:1010E800011212A175B1FD7FF47E011212A175B132
:0910F800FE7FF47E011212A12218
:1012770075B1F07FF47E011212A175B1FF7FF47E84
:05128700011212A1227A
:100F6C0079011212F3121213EF14600E14600714AD
:100F7C00700A79038006790280027901E924FE6007
:100F8C000C14600E240270DD1210AF80D812127790
:090F9C0080D31210D880CE80CC65
:010FA5002229
:0512EE00D290D2912214
:0612E800C29000C2912239
:0912B500D290D291C290C29122A4
:0912BE00C291C290D291D290229B
:0912C700C290D291C291D2902292
:0912D000D290D291C291D2902279
:10110100E4FEEF20E704C2908002D290D291000069
:1011110000C291EF25E0FF0EBE08E7D290D2910008
:07112100A290E433FFC2912C
:0111280022A4
:1011F700E4FFFED291309003430701EEC3940750FA
:0B12070004EF25E0FFC2910EBE08E8D6
:0112120022B9
:0312E400014E00B8
:10122E0090E600740AF090E6087401F053877F751B
:09123E009850D2ACD28CD2AF2240
:060FDE008B588A59895A64
:100FE400E4F55BAB58AA59A95A12128CC3E55B9F6E
:100FF400EE6480F87480985017AB58AA59A95A85A2
:101004005B8275830012095FFF1212D9055B80D3DE
:0110140022B9
:061015008B688A69896AFC
:10101B00E4F56BAB68AA69A96A12128CC3E56B9FE6
:10102B00EE6480F87480985017AB68AA69A96A853A
:10103B006B8275830012095FFF1212D9056B80D387
:01104B002282
:100E4B0012107FE4FF1212477F101212477F4012DD
:100E5B0012477FB0121247E4F55AE55AC3954E502C
:100E6B00477408255AF8E6FFC4540FF558EF540F92
:100E7B00F559E558C3940A500AE5582430FF120F70
:100E8B00A68008E5582457FF120FA6E559C3940A0C
:100E9B00500AE5592430FF120FA68008E559245754
:0B0EAB00FF120FA6055A80B2E4F54EBE
:010EB6002219
:100F1E0012107FE4FF1212477F101212477F401209
:100F2E0012477FB0121247E4F55AE55AC3954E5058
:100F3E00297408255AF8E6FF640D6009EF640A600B
:100F4E0004EFB40B077F20120FA6800A7408255AEF
:0D0F5E00F8E6FF120FA6055A80D0E4F54E0C
:010F6B002263
:10112900AB07AA067C017D001209AE8F993099FDA3
:10113900C299AE02AF037C017D001209AE8D9930D0
:0511490099FDC299228E
:0812D9008F993099FDC29922A2
:0300230002104C7C
:09104C00C0E0C0D075D000C00066
:10105500309820C298E54EC3944650147408254E26
:10106500F8A699054E7407254EF8E6B40A058003DF
:03107500754E00B5
:07107800D000D0D0D0E0321F
:1000260000000000000000000000000000000000CA
:10003600000000000000005F005F000000000000FC
:100046000000000000030007000000070003000096
:10005600000000100074001C0077001C001700044C
:1000660000000024002E002A007F002A003A00101B
:100076000000004C006A0076001A006A0056003341
:1000860000000030007A004F005D0037007A00481B
:10009600000000000004000700030000000000004C
:1000A600000000000000001C003E0063004100004C
:1000B6000000000000410063003E001C000000003C
:1000C60000000008002A003E001C003E002A00082E
:1000D600000000080008003E003E0008000800007E
:1000E600000000000000006000600000000000004A
:1000F60000000008000800080008000800080000CA
:100106000000000000000060006000000000000029
:100116000000006000300018000C0006000300011B
:100126000000001C003E00610043003E001C000071
:10013600000000000044007F007F00400000000037
:1001460000000046006700710059004F006600007D
:100156000000002200630049004D007F00320000CD
:1001660000000018001C0052007F007F00500000B5
:100176000000002F006F00450045007D003900009B
:100186000000003C007E004B004900790030000072
:100196000000000700430071007D000F000300000F
:1001A60000000036007F004D0059007F0036000039
:1001B60000000006004F00490069003F001E0000D5
:1001C600000000000000006600660000000000005D
:1001D600000000000000006600660000000000004D
:1001E600000000000008001C00360063004100000B
:1001F6000000001400140014001400140014000081
:1002060000000000004100630036001C00080000EA
:1002160000000002000700510059000F0006000010
:100226000000003E0041005D0055005D0051001ECB
:10023600000000400070001D0017001F00780060DD
:1002460000000041007F007F0049004F007E003023
:100256000000001C003E00630041004100420027F0
:1002660000000041007F007F00410063003E001C4B
:1002760000000041007F007F0049005D00410063EF
:1002860000000041007F007F0049001D00010003BF
:100296000000001C003E0063004100510072007720
:1002A6000000007F007F00080008007F007F00003C
:1002B600000000000041007F007F004100000000B8
:1002C60000000030007000410041007F003F000147
:1002D6000000007F007F0008001C007700630041DB
:1002E60000000041007F007F004100400060007078
:1002F6000000007F007E000C0018000C007E007FCE
:100306000000007F007E000C00180030007F007F98
:100316000000001C003E006300410063003E001C1C
:1003260000000041007F007F00490009000F000621
:100336000000001C003E006300510063003E001CEC
:100346000000007F007F00090019007F0066004062
:1003560000000066006F004D0059007B003300006E
:10036600000000030041007F007F00410003000001
:100376000000003F007F004000400040007F003F3B
:1003860000000003000F003D0070001D0007000183
:100396000000000F007F0030001C0030007F000FBF
:1003A600000000630077001C001C0077006300005B
:1003B600000100030047007C0078004700030001AD
:1003C6000000006700730059004D006700730000CD
:1003D600000000000000007F007F00410041000097
:1003E6000000000100030006000C00180030006049
:1003F6000000000000410041007F007F0000000077
:1004060000000000000400060003000600040000CF
:1004160000000000000000000000000000000000D6
:1004260000000000000100030006000400000000B8
:1004360000000068006C00540054003C0078004046
:1004460000000041007F003F006C0044007C003843
:1004560000000038007C00440044006C002C0000C2
:1004660000000038007C00440049003F007F004047
:1004760000000038007C00540054005C0058000066
:10048600000000000048007E007F0049000B0002CB
:1004960000000048007C00340034002C0068004452
:1004A60000000041007F007F00080004007C007807
:1004B600000000000044007D007D004000000000B8
:1004C6000000006000600004007D007D0000000068
:1004D60000000041007F007F00100078006C00449F
:1004E600000000000041007F007F00400000000087
:1004F6000000007C007C000C0078000C007C00787A
:1005060000000044007C007C00080004007C0078A9
:1005160000000038007C00440044007C00380000E5
:1005260000000004007C007800240024003C001831
:1005360000000018003C002400240078007C000025
:1005460000000044007C0078004C0004001C0018E9
:1005560000000048005C005C007400740024000089
:10056600000000000004003E007F0044002400005C
:100576000000003C007C00400040003C007C004045
:1005860000000004001C003C00600030001C000459
:100596000000001C007C0030001C0030007C001CA9
:1005A60000000044006C003C00100078006C004421
:1005B60000000044004C001C00700064001C000C8D
:1005C6000000004C00640074005C004C00640000F5
:1005D600000000080008003E0077004100410000CE
:1005E600000000000000007F007F00000000000007
:1005F6000000004100410077003E000800080000AE
:1006060000000002000100010003000200020001D8
:10061600000000600078004E0047005E0078006031
:100626000000001C003E002300410041004200275C
:100636000000003D007D00400041003D007C004080
:101247008F5F1212E87F78121101E4FF121101AFCC
:081257005F1211011212BE2208
:10125F008F5F1212E87F781211017F40121101AFD8
:08126F005F1211011212BE22F0
:100DCD007FAE1212477FD51212477F801212477FD6
:100DDD00A81212477F3F1212477FD3121247E4FF2A
:100DED001212477F401212477F8D1212477F141245
:100DFD0012477F20121247E4FF1212477FA11212F1
:100E0D00477FC81212477FDA1212477F121212471C
:100E1D007F811212477FCF1212477FD91212477F5F
:100E2D00F11212477FDB1212477F401212477FA447
:0E0E3D001212477FA61212477FAF12124722F1
:10107F00E4FF1212477F101212477F401212477F70
:10108F00B0121247E4F55BF55CE4FF12125F055CEA
:0F109F00E55C7002055BC3E55B6480948440EA06
:0110AE00221F
:020FA6008F5B5F
:100FA800E4F55CE55B75F008A47C00255CFFEC3596
:100FB800F0FEEF25E0FFEE33FE74262FF58274FE77
:100FC8003EF583E493740193FF12125F055CE55CC0
:050FD800C3940840CEA7
:010FDD0022F1
:10000300E4FF1212477F101212477F40121247E497
:0F001300FFFE0FBF00010EE4B507F7EEB404F3D4
:0100220022BB
:060C14008B588A59895A31
:100C1A00E4F55BF55CF55DF55EFF1212477F101295
:100C2A0012477F401212477FB0121247E4F55BF574
:100C3A005CAB58AA59A95A12128CC3E55C9FEE64A0
:100C4A0080F8E55B6480984003020D01AB58AA590D
:100C5A00A95A855C82855B8312095FFF640D60096E
:100C6A00EF640A6004EFB40B36E4F55DF55EE55E09
:100C7A0025E0FFE55D33FE74262FF58274003EF50C
:100C8A0083E493740193FF12125F055EE55E7002BE
:100C9A00055DC39408E55D6480948040D1804DE48D
:100CAA00F55DF55EAB58AA59A95A855C82855B83C6
:100CBA0012095F75F008A4255EFFE55D35F0FEEFC9
:100CCA0025E0FFEE33FE74262FF58274FE3EF5838F
:100CDA00E493740193FF12125F055EE55E700205EC
:100CEA005DC39408E55D6480948040B8055CE55C6A
:100CFA007002055B020C3BE4F55BF55CAB58AA5944
:100D0A00A95A12128CEF7803C333CE33CED8F9FF27
:100D1A00C3E49FFF74049EFEC3E55C9FEE6480F803
:100D2A00E55B648098500FE4FF12125F055CE55C96
:060D3A007002055B80C69B
:010D40002290
:0A0EB7008B608A6189628C638D6490
:050EC100E4F565F56693
:100EC600AE63AF647C007D801209AE8D67AE63AF02
:100ED600647C007D801209AE8E638F64D3E56494D2
:100EE60000E563648094804003436780AB60AA6139
:100EF600A9620566E566AE657002056514F5828E23
:060F060083E56712098C6F
:100F0C00D3E5649400E5636480948050ADAE65AF26
:010F1C00666E
:010F1D0022B1
:0112F70022D4
:03000000020D41AD
:0C0D4100787FE4F6D8FD758171020D8802
:10086900E709F608DFFA8046E709F208DFFA803E71
:1008790088828C83E709F0A3DFFA8032E309F6085E
:10088900DFFA8078E309F208DFFA807088828C83C6
:10089900E309F0A3DFFA806489828A83E0A3F6087A
:1008A900DFFA805889828A83E0A3F208DFFA804C54
:1008B90080D280FA80C680D4806980F2803380102B
:1008C90080A680EA809A80A880DA80E280CA803394
:1008D90089828A83ECFAE493A3C8C582C8CCC5830C
:1008E900CCF0A3C8C582C8CCC583CCDFE9DEE780DC
:1008F9000D89828A83E493A3F608DFF9ECFAA9F05B
:10090900EDFB2289828A83ECFAE0A3C8C582C8CCB0
:10091900C583CCF0A3C8C582C8CCC583CCDFEADEC9
:10092900E880DB89828A83E493A3F208DFF980CC2B
:1009390088F0EF60010E4E60C388F0ED2402B40424
:100949000050B9F582EB2402B4040050AF232345CB
:0609590082239008B9732F
:10095F00BB010CE58229F582E5833AF583E022504D
:10096F0006E92582F8E622BBFE06E92582F8E22297
:0D097F00E58229F582E5833AF583E49322B1
:10098C00F8BB010DE58229F582E5833AF583E8F0A1
:10099C00225006E92582C8F622BBFE05E92582C84D
:0209AC00F22235
:1009AE00C2D5EC30E709B2D5E4C39DFDE49CFCEE64
:1009BE0030E715B2D5E4C39FFFE49EFE1209FDC3D6
:1009CE00E49DFDE49CFC80031209FD30D507C3E4D1
:0609DE009FFFE49EFE22D3
:10128C00E4FFFE1209E4600C0FEF70010E09E97027
:05129C00F20A80EF22C0
:100D4D00020A52E493A3F8E493A34003F68001F260
:100D5D0008DFF48029E493A3F85407240CC8C333A7
:100D6D00C4540F4420C8834004F456800146F6DF76
:100D7D00E4800B01020408102040809012E1E47E13
:100D8D00019360BCA3FF543F30E509541FFEE4936B
:100D9D00A360010ECF54C025E060A840B8E493A332
:100DAD00FAE493A3F8E493A3C8C582C8CAC583CA5D
:100DBD00F0A3C8C582C8CAC583CADFE9DEE780BE15
:0112E7000006
:1009E400BB010689828A83E0225002E722BBFE0211
:0909F400E32289828A83E4932244
:1009FD00BC000BBE0029EF8DF084FFADF022E4CCDE
:100A0D00F875F008EF2FFFEE33FEEC33FCEE9DECA6
:100A1D00984005FCEE9DFE0FD5F0E9E4CEFD22EDEC
:100A2D00F8F5F0EE8420D21CFEADF075F008EF2F36
:100A3D00FFED33FD4007985006D5F0F222C398FD27
:050A4D000FD5F0EA22C4
:00000001FF
