:100BD800202054656D7065726174757265202620D9
:100BE800002020202048756D6964697479202020D0
:100BF80020002020202020323031372D3130202095
:100C080020200020202020206279204A6F686E2052
:100C1800202020002B2B2B0041542B5253540041F1
:100C2800542B4349504D55583D310041542B4349AD
:100C38005053544152543D302C22554450222C22BA
:100C48003139322E3136382E322E33222C34343488
:100C5800352C343434352C32004368616E6E656C43
:100C680020313A204F4E004368616E6E656C20312A
:060C78003A204F46460041
:06112800017701017800CF
:10064600E4F552F553F554F555F556F55775B5FFDE
:1006560075B3FF75B60F7FE87E0312117DD2B51212
:1006660011531211C3120D0A120F9212113E7BFF83
:100676007A0B79D8120A2D7BFF7A0B79E9120A2DAB
:100686007BFF7A0B79FA120A2D7BFF7A0C790B1213
:100696000A2D1207CA7F887E1312117D80CA80FE3A
:1006A6007BFF7A0C791C120EF17F887E1312117D66
:1006B600120D0A120F9212113E7BFF7A0C7920124C
:1006C6000EF17F0D1211B57F0A1211B5E4FF12115A
:1006D600B57F107E2712117D120DF47F887E1312CE
:1006E600117DE4F54E7BFF7A0C7927120EF17F0D12
:1006F6001211B57F0A1211B5E4FF1211B57F887E7B
:100706001312117D120DF47FE87E0312117D7BFF1B
:100716007A0C7933120EF17F0D1211B57F0A121180
:10072600B5E4FF1211B57FB87E0B12117D120DF4E0
:100736007FE87E0312117DE4F554F5551210C4EFDF
:100746006029B2B76357FF6356FFE5574556600BFE
:100756007BFF7A0C796112090080097BFF7A0C799C
:100766006F1209007FF47E0112117D0555E5557063
:10077600020554C39464E5546480948040BEE54EFB
:10078600B40FB42407F8E61392B7120D0A120F92AB
:100796007407254EF8E624D0600B7BFF7A0C79614E
:1007A60012090080097BFF7A0C796F120900740721
:1007B600254EF8E624D0F557E434FFF556E4F54E19
:0307C60002073DEA
:0107C900220D
:0511C300D290D2912240
:0611BD00C29000C2912265
:09119100D290D291C290C29122C9
:09119A00C291C290D291D29022C0
:0911A300C290D291C291D29022B7
:0911AC00D290D291C291D290229E
:10103E00E4FEEF20E704C2908002D290D29100002D
:10104E0000C291EF25E0FF0EBE08E7D290D29100CC
:07105E00A290E433FFC291F0
:011065002268
:1010A800E4FFFED291309003430701EEC39407504A
:0B10B80004EF25E0FFC2910EBE08E827
:0110C300220A
:03112E00014E006F
:1010DF0090E600740AF090E6087401F053877F756C
:0910EF009850D2ACD28CD2AF2291
:060EF1008B588A59895A52
:100EF700E4F55BAB58AA59A95A121168C3E55B9F81
:100F0700EE6480F87480985017AB58AA59A95A858F
:100F17005B82758300120B07FF1211B5055B80D347
:010F270022A7
:060F28008B6D8A6E896FDB
:100F2E00E4F570AB6DAA6EA96F121168C3E5709FE0
:100F3E00EE6480F87480985017AB6DAA6EA96F8519
:100F4E007082758300120B07FF1211B5057080D3E6
:010F5E002270
:100D8800120F92E4FF1210F87F101210F87F401231
:100D980010F87FB01210F8E4F573E573C3954E5060
:100DA8004774082573F8E6FFC4540FF571EF540F24
:100DB800F572E571C3940A500AE5712430FF120EEA
:100DC800B98008E5712457FF120EB9E572C3940A79
:100DD800500AE5722430FF120EB98008E5722457D4
:0B0DE800FF120EB9057380B2E4F54E57
:010DF30022DD
:100DF400120F92E4FF1210F87F101210F87F4012C5
:100E040010F87FB01210F8E4F55AE55AC3954E5025
:100E1400297408255AF8E6FF640D6009EF640A6036
:100E240004EFB40B077F20120EB9800A7408255A08
:0D0E3400F8E6FF120EB9055A80D0E4F54E25
:010E4100228E
:10106600AB07AA067C017D00120B348F993099FDDF
:10107600C299AE02AF037C017D00120B348D99300C
:0510860099FDC2992252
:0811B5008F993099FDC29922C7
:03002300020F5F6A
:090F5F00C0E0C0D075D000C00054
:100F6800309820C298E54EC3944650147408254E14
:100F7800F8A699054E7407254EF8E6B40A058003CD
:030F8800754E00A3
:070F8B00D000D0D0D0E0320D
:1000260000000000000000000000000000000000CA
:10003600000000000000005F005F000000000000FC
:100046000000000000030007000000070003000096
:10005600000000100074001C0077001C001700044C
:1000660000000024002E002A007F002A003A00101B
:100076000000004C006A0076001A006A0056003341
:1000860000000030007A004F005D0037007A00481B
:10009600000000000004000700030000000000004C
:1000A600000000000000001C003E0063004100004C
:1000B6000000000000410063003E001C000000003C
:1000C60000000008002A003E001C003E002A00082E
:1000D600000000080008003E003E0008000800007E
:1000E600000000000000006000600000000000004A
:1000F60000000008000800080008000800080000CA
:100106000000000000000060006000000000000029
:100116000000006000300018000C0006000300011B
:100126000000001C003E00610043003E001C000071
:10013600000000000044007F007F00400000000037
:1001460000000046006700710059004F006600007D
:100156000000002200630049004D007F00320000CD
:1001660000000018001C0052007F007F00500000B5
:100176000000002F006F00450045007D003900009B
:100186000000003C007E004B004900790030000072
:100196000000000700430071007D000F000300000F
:1001A60000000036007F004D0059007F0036000039
:1001B60000000006004F00490069003F001E0000D5
:1001C600000000000000006600660000000000005D
:1001D600000000000000006600660000000000004D
:1001E600000000000008001C00360063004100000B
:1001F6000000001400140014001400140014000081
:1002060000000000004100630036001C00080000EA
:1002160000000002000700510059000F0006000010
:100226000000003E0041005D0055005D0051001ECB
:10023600000000400070001D0017001F00780060DD
:1002460000000041007F007F0049004F007E003023
:100256000000001C003E00630041004100420027F0
:1002660000000041007F007F00410063003E001C4B
:1002760000000041007F007F0049005D00410063EF
:1002860000000041007F007F0049001D00010003BF
:100296000000001C003E0063004100510072007720
:1002A6000000007F007F00080008007F007F00003C
:1002B600000000000041007F007F004100000000B8
:1002C60000000030007000410041007F003F000147
:1002D6000000007F007F0008001C007700630041DB
:1002E60000000041007F007F004100400060007078
:1002F6000000007F007E000C0018000C007E007FCE
:100306000000007F007E000C00180030007F007F98
:100316000000001C003E006300410063003E001C1C
:1003260000000041007F007F00490009000F000621
:100336000000001C003E006300510063003E001CEC
:100346000000007F007F00090019007F0066004062
:1003560000000066006F004D0059007B003300006E
:10036600000000030041007F007F00410003000001
:100376000000003F007F004000400040007F003F3B
:1003860000000003000F003D0070001D0007000183
:100396000000000F007F0030001C0030007F000FBF
:1003A600000000630077001C001C0077006300005B
:1003B600000100030047007C0078004700030001AD
:1003C6000000006700730059004D006700730000CD
:1003D600000000000000007F007F00410041000097
:1003E6000000000100030006000C00180030006049
:1003F6000000000000410041007F007F0000000077
:1004060000000000000400060003000600040000CF
:1004160000000000000000000000000000000000D6
:1004260000000000000100030006000400000000B8
:1004360000000068006C00540054003C0078004046
:1004460000000041007F003F006C0044007C003843
:1004560000000038007C00440044006C002C0000C2
:1004660000000038007C00440049003F007F004047
:1004760000000038007C00540054005C0058000066
:10048600000000000048007E007F0049000B0002CB
:1004960000000048007C00340034002C0068004452
:1004A60000000041007F007F00080004007C007807
:1004B600000000000044007D007D004000000000B8
:1004C6000000006000600004007D007D0000000068
:1004D60000000041007F007F00100078006C00449F
:1004E600000000000041007F007F00400000000087
:1004F6000000007C007C000C0078000C007C00787A
:1005060000000044007C007C00080004007C0078A9
:1005160000000038007C00440044007C00380000E5
:1005260000000004007C007800240024003C001831
:1005360000000018003C002400240078007C000025
:1005460000000044007C0078004C0004001C0018E9
:1005560000000048005C005C007400740024000089
:10056600000000000004003E007F0044002400005C
:100576000000003C007C00400040003C007C004045
:1005860000000004001C003C00600030001C000459
:100596000000001C007C0030001C0030007C001CA9
:1005A60000000044006C003C00100078006C004421
:1005B60000000044004C001C00700064001C000C8D
:1005C6000000004C00640074005C004C00640000F5
:1005D600000000080008003E0077004100410000CE
:1005E600000000000000007F007F00000000000007
:1005F6000000004100410077003E000800080000AE
:1006060000000002000100010003000200020001D8
:10061600000000600078004E0047005E0078006031
:100626000000001C003E002300410041004200275C
:100636000000003D007D00400041003D007C004080
:1010F8008F5F1211BD7F7812103EE4FF12103EAFD1
:081108005F12103E12119A2241
:101110008F621211BD7F7812103E7F4012103EAFD9
:081120006212103E12119A2226
:100D0A007FAE1210F87FD51210F87F801210F87F8C
:100D1A00A81210F87F3F1210F87FD31210F8E4FFE0
:100D2A001210F87F401210F87F8D1210F87F1412FB
:100D3A0010F87F201210F8E4FF1210F87FA11210A9
:100D4A00F87FC81210F87FDA1210F87F121210F822
:100D5A007F811210F87FCF1210F87FD91210F87F16
:100D6A00F11210F87FDB1210F87F401210F87FA4FE
:0E0D7A001210F87FA61210F87FAF1210F822A8
:100F9200E4FF1210F87F101210F87F401210F87F51
:100FA200B01210F8E4F55BF55CE4FF121110055C79
:0F0FB200E55C7002055BC3E55B6480948440EAF4
:010FC100220D
:020EB9008F5D4B
:100EBB00E4F55EE55D75F008A47C00255EFFEC357E
:100ECB00F0FEEF25E0FFEE33FE74262FF58274FE65
:100EDB003EF583E493740193FF121110055EE55EFA
:050EEB00C3940840CE95
:010EF00022DF
:10000300E4FF1210F87F101210F87F401210F8E48A
:0F001300FFFE0FBF00010EE4B507F7EEB404F3D4
:0100220022BB
:060900008B588A59895A48
:10090600E4F55BF55CF55DF55EFF1210F87F1012FD
:1009160010F87F401210F87FB01210F8E4F55BF57E
:100926005CAB58AA59A95A121168C3E55C9FEE64DC
:1009360080F8E55B64809840030209EDAB58AA593C
:10094600A95A855C82855B83120B07FF640D6009DB
:10095600EF640A6004EFB40B36E4F55DF55EE55E20
:1009660025E0FFE55D33FE74262FF58274003EF523
:1009760083E493740193FF121110055EE55E700225
:10098600055DC39408E55D6480948040D1804DE4A4
:10099600F55DF55EAB58AA59A95A855C82855B83DD
:1009A600120B0775F008A4255EFFE55D35F0FEEF36
:1009B60025E0FFEE33FE74262FF58274FE3EF583A6
:1009C600E493740193FF121110055EE55E70020553
:1009D6005DC39408E55D6480948040B8055CE55C81
:1009E6007002055B020927E4F55BF55CAB58AA5972
:1009F600A95A121168EF7803C333CE33CED8F9FF64
:100A0600C3E49FFF74049EFEC3E55C9FEE6480F81A
:100A1600E55B648098500FE4FF121110055CE55CFD
:060A26007002055B80C6B2
:010A2C0022A7
:10113E00E4FF1210F87F101210F87F401210F87FA3
:05114E00B01210F822B0
:060A2D008B5B8A5C895D11
:100A3300E4F55EF55FF560F561F55EF55FAB5BAA26
:100A43005CA95D121168C3E55F9FEE6480F8E55E03
:100A53006480984003020B06AB5BAA5CA95D855FCB
:100A630082855E83120B07FF640D6009EF640A60E1
:100A730004EFB40B36E4F560F561E56125E0FFE5CD
:100A83006033FE74262FF58274003EF583E493747D
:100A93000193FF1211100561E56170020560C394B3
:100AA30008E5606480948040D1804DE4F560F56191
:100AB300AB5BAA5CA95D855F82855E83120B0775BC
:100AC300F008A42561FFE56035F0FEEF25E0FFEEB9
:100AD30033FE74262FF58274FE3EF583E49374018E
:100AE30093FF1211100561E56170020560C394085C
:100AF300E5606480948040B8055FE55F7002055E41
:030B0300020A40A3
:010B060022CC
:0411C80075B60F22C7
:10108B00E4FFFEE4FDFC0DBD00010CED64134C70A0
:0C109B00F50FBF00010EEF640A4E70E775
:0110A7002226
:10117D00AB07AA06EB1BAE0270011A4E60051210EA
:04118D008B80F12240
:1010C400E5B120E6037F0322E5B120E5037F022298
:0B10D400E5B120E4037F01227F002231
:100FEC0075B1FE7FF47E0112117D75B1FD7FF47E2B
:100FFC000112117D75B1FB7FF47E0112117D75B16B
:09100C00F77FF47E0112117D2230
:1010150075B1F77FF47E0112117D75B1FB7FF47E0A
:101025000112117D75B1FD7FF47E0112117D75B13F
:09103500FE7FF47E0112117D2200
:1011530075B1F07FF47E0112117D75B1FF7FF47ECE
:051163000112117D22C4
:100E7F0079011211C81210C4EF14600E1460071418
:100E8F00700A79038006790280027901E924FE60F5
:100E9F000C14600E240270DD120FEC80D812115367
:090EAF0080D312101580CE80CC16
:010EB8002217
:100FC2002D2D2D2D2D2D2D2D2D2D2D2D2D2D2D2D4F
:100FD2000048756D69646974793A00202020200008
:0A0FE20054656D70657261743A0089
:0C1131000A630000000000000000000045
:100E4200EFC4540FF55BEF540FF55CE55BC3940AF6
:100E5200500AE55B2430FF120EB98008E55B245787
:100E6200FF120EB9E55CC3940A5009E55C2430FF19
:0C0E7200120EB922E55C2457FF120EB9E5
:010E7E002251
:1007CA00E4F563F564F565F566F567F568F569F5C9
:1007DA006AF56BF56CF55A75B5FFC2B47F14FE1253
:1007EA00117DD2B475B5EF20B4FD30B4FD20B4FD4F
:1007FA00E4F558E4F559E4F55A30B4FD30B404058B
:10080A005A80F9E55AD3940F402BE55825E0246322
:10081A00F8C000E6FC08E6FD74807E00A85908804E
:10082A0006CEA2E713CE13D8F8FFEC4EFEED4FD05A
:10083A0000A60608F60559E559B408BA0558E55858
:10084A00B405B0AF64120E427F2D120EB9AF661214
:10085A000E427F2D120EB9AF68120E427F2D120E74
:10086A00B9AF6A120E427F2D120EB97F2D120EB940
:10087A007F2D120EB97F2D120EB97F2D120EB97B64
:10088A00FF7A0F79C2120A2D7BFF7A0F79D3120AE7
:10089A002DAE63AF647C007D0A120B34EF2430FF67
:1008AA00120EB9AE63AF647C007D0A120B34ED24DC
:1008BA0030FF120EB97F25120EB97BFF7A0F79DD50
:1008CA00120A2D7BFF7A0F79E2120A2DAE67AF6802
:1008DA007C007D0A120B34EF2430FF120EB9AE678A
:1008EA00AF687C007D0A120B34ED2430FF120EB97A
:0508FA007F43120EB95E
:0108FF0022D6
:03000000020C7E71
:0C0C7E00787FE4F6D8FD75817A020CC581
:100B0700BB010CE58229F582E5833AF583E02250A3
:100B170006E92582F8E622BBFE06E92582F8E222ED
:0D0B2700E58229F582E5833AF583E4932207
:100B3400C2D5EC30E709B2D5E4C39DFDE49CFCEEDC
:100B440030E715B2D5E4C39FFFE49EFE120B83C3C6
:100B5400E49DFDE49CFC8003120B8330D507C3E4C1
:060B64009FFFE49EFE224B
:10116800E4FFFE120B6A600C0FEF70010E09E970C4
:05117800F20A80EF22E5
:100C8A00020646E493A3F8E493A34003F68001F234
:100C9A0008DFF48029E493A3F85407240CC8C3336B
:100CAA00C4540F4420C8834004F456800146F6DF3A
:100CBA00E4800B0102040810204080901128E47E91
:100CCA00019360BCA3FF543F30E509541FFEE4932F
:100CDA00A360010ECF54C025E060A840B8E493A3F6
:100CEA00FAE493A3F8E493A3C8C582C8CAC583CA21
:100CFA00F0A3C8C582C8CAC583CADFE9DEE780BED9
:01113D0000B1
:100B6A00BB010689828A83E0225002E722BBFE0289
:090B7A00E32289828A83E49322BC
:100B8300BC000BBE0029EF8DF084FFADF022E4CC56
:100B9300F875F008EF2FFFEE33FEEC33FCEE9DEC1F
:100BA300984005FCEE9DFE0FD5F0E9E4CEFD22ED65
:100BB300F8F5F0EE8420D21CFEADF075F008EF2FAF
:100BC300FFED33FD4007985006D5F0F222C398FDA0
:050BD3000FD5F0EA223D
:00000001FF
