:100B9A00202054656D706572617475726520262017
:100BAA00002020202048756D69646974792020200E
:100BBA0020002020202020323031372D31302020D3
:100BCA0020200020202020206279204A6F686E2091
:040BDA0020202000B7
:060E5800012D01012E0036
:100B3B00E4F508F509F50AF50BF50CF50D75B5FFA0
:100B4B0075B3FF75B60F7FE87E03120E44D2B51254
:100B5B000E1A120E95120ABD120C8D120E057BFF8A
:100B6B007A0B799A1208867BFF7A0B79AB1208867F
:100B7B007BFF7A0B79BC1208867BFF7A0B79CD123F
:0E0B8B0008861206237F887E13120E4480CA4D
:010B99002239
:050E9500D290D2912271
:060E8F00C29000C2912296
:090E6B00D290D291C290C29122F2
:090E7400C291C290D291D29022E9
:090E7D00C290D291C291D29022E0
:090E8600D290D291C291D29022C7
:100D3900E4FEEF20E704C2908002D290D291000035
:100D490000C291EF25E0FF0EBE08E7D290D29100D4
:070D5900A290E433FFC291F8
:010D60002270
:100D9E00E4FFFED291309003430701EEC394075057
:0B0DAE0004EF25E0FFC2910EBE08E834
:010DB9002217
:1000030000000000000000000000000000000000ED
:10001300000000000000005F005F0000000000001F
:1000230000000000000300070000000700030000B9
:10003300000000100074001C0077001C001700046F
:1000430000000024002E002A007F002A003A00103E
:100053000000004C006A0076001A006A0056003364
:1000630000000030007A004F005D0037007A00483E
:10007300000000000004000700030000000000006F
:10008300000000000000001C003E0063004100006F
:100093000000000000410063003E001C000000005F
:1000A30000000008002A003E001C003E002A000851
:1000B300000000080008003E003E000800080000A1
:1000C300000000000000006000600000000000006D
:1000D30000000008000800080008000800080000ED
:1000E300000000000000006000600000000000004D
:1000F3000000006000300018000C0006000300013F
:100103000000001C003E00610043003E001C000094
:10011300000000000044007F007F0040000000005A
:1001230000000046006700710059004F00660000A0
:100133000000002200630049004D007F00320000F0
:1001430000000018001C0052007F007F00500000D8
:100153000000002F006F00450045007D00390000BE
:100163000000003C007E004B004900790030000095
:100173000000000700430071007D000F0003000032
:1001830000000036007F004D0059007F003600005C
:1001930000000006004F00490069003F001E0000F8
:1001A3000000000000000066006600000000000080
:1001B3000000000000000066006600000000000070
:1001C300000000000008001C00360063004100002E
:1001D30000000014001400140014001400140000A4
:1001E30000000000004100630036001C000800000E
:1001F30000000002000700510059000F0006000034
:100203000000003E0041005D0055005D0051001EEE
:10021300000000400070001D0017001F0078006000
:1002230000000041007F007F0049004F007E003046
:100233000000001C003E0063004100410042002713
:1002430000000041007F007F00410063003E001C6E
:1002530000000041007F007F0049005D0041006312
:1002630000000041007F007F0049001D00010003E2
:100273000000001C003E0063004100510072007743
:100283000000007F007F00080008007F007F00005F
:10029300000000000041007F007F004100000000DB
:1002A30000000030007000410041007F003F00016A
:1002B3000000007F007F0008001C007700630041FE
:1002C30000000041007F007F00410040006000709B
:1002D3000000007F007E000C0018000C007E007FF1
:1002E3000000007F007E000C00180030007F007FBC
:1002F3000000001C003E006300410063003E001C40
:1003030000000041007F007F00490009000F000644
:100313000000001C003E006300510063003E001C0F
:100323000000007F007F00090019007F0066004085
:1003330000000066006F004D0059007B0033000091
:10034300000000030041007F007F00410003000024
:100353000000003F007F004000400040007F003F5E
:1003630000000003000F003D0070001D00070001A6
:100373000000000F007F0030001C0030007F000FE2
:10038300000000630077001C001C0077006300007E
:10039300000100030047007C0078004700030001D0
:1003A3000000006700730059004D006700730000F0
:1003B300000000000000007F007F004100410000BA
:1003C3000000000100030006000C0018003000606C
:1003D3000000000000410041007F007F000000009A
:1003E30000000000000400060003000600040000F3
:1003F30000000000000000000000000000000000FA
:1004030000000000000100030006000400000000DB
:1004130000000068006C00540054003C0078004069
:1004230000000041007F003F006C0044007C003866
:1004330000000038007C00440044006C002C0000E5
:1004430000000038007C00440049003F007F00406A
:1004530000000038007C00540054005C0058000089
:10046300000000000048007E007F0049000B0002EE
:1004730000000048007C00340034002C0068004475
:1004830000000041007F007F00080004007C00782A
:10049300000000000044007D007D004000000000DB
:1004A3000000006000600004007D007D000000008B
:1004B30000000041007F007F00100078006C0044C2
:1004C300000000000041007F007F004000000000AA
:1004D3000000007C007C000C0078000C007C00789D
:1004E30000000044007C007C00080004007C0078CD
:1004F30000000038007C00440044007C0038000009
:1005030000000004007C007800240024003C001854
:1005130000000018003C002400240078007C000048
:1005230000000044007C0078004C0004001C00180C
:1005330000000048005C005C0074007400240000AC
:10054300000000000004003E007F0044002400007F
:100553000000003C007C00400040003C007C004068
:1005630000000004001C003C00600030001C00047C
:100573000000001C007C0030001C0030007C001CCC
:1005830000000044006C003C00100078006C004444
:1005930000000044004C001C00700064001C000CB0
:1005A3000000004C00640074005C004C0064000018
:1005B300000000080008003E0077004100410000F1
:1005C300000000000000007F007F0000000000002A
:1005D3000000004100410077003E000800080000D1
:1005E30000000002000100010003000200020001FC
:1005F300000000600078004E0047005E0078006055
:100603000000001C003E002300410041004200277F
:100613000000003D007D00400041003D007C0040A3
:100DD5008F10120E8F7F78120D39E4FF120D39AF87
:080DE50010120D39120E7422E8
:100DED008F18120E8F7F78120D397F40120D39AF8B
:080DFD0018120D39120E7422C8
:100ABD007FAE120DD57FD5120DD57F80120DD57F4E
:100ACD00A8120DD57F3F120DD57FD3120DD5E4FFA2
:100ADD00120DD57F40120DD57F8D120DD57F1412BD
:100AED000DD57F20120DD5E4FF120DD57FA1120D6E
:100AFD00D57FC8120DD57FDA120DD57F12120DD507
:100B0D007F81120DD57FCF120DD57FD9120DD57FD7
:100B1D00F1120DD57FDB120DD57F40120DD57FA4BF
:0E0B2D00120DD57FA6120DD57FAF120DD52269
:100C8D00E4FF120DD57F10120DD57F40120DD57FCB
:100C9D00B0120DD5E4F50EF50FE4FF120DED050FB5
:0F0CAD00E50F7002050EC3E50E6480948440EAE3
:010CBC002215
:020C55008F11FD
:100C5700E4F512E51175F008A47C002512FFEC35C8
:100C6700F0FEEF25E0FFEE33FE74032FF58274FEEE
:100C77003EF583E493740193FF120DED0512E5121F
:050C8700C3940840CEFB
:010C8C002245
:100D6100E4FF120DD57F10120DD57F40120DD5E491
:0F0D7100FFFE0FBF00010EE4B507F7EEB404F369
:010D80002250
:060759008B238A24892590
:10075F00E4F526F527F528F529FF120DD57F1012A0
:10076F000DD57F40120DD57FB0120DD5E4F526F5CE
:10077F0027AB23AA24A925120E2FC3E5279FEE64CA
:10078F0080F8E5266480984003020846AB23AA242C
:10079F00A925852782852683120960FF640D6009CC
:1007AF00EF640A6004EFB40B36E4F528F529E52968
:1007BF0025E0FFE52833FE74032FF58274003EF524
:1007CF0083E493740193FF120DED0529E52970025F
:1007DF000528C39408E5286480948040D1804DE4B7
:1007EF00F528F529AB23AA24A925852782852683F9
:1007FF0012096075F008A42529FFE52835F0FEEFF2
:10080F0025E0FFEE33FE74032FF58274FE3EF58371
:10081F00E493740193FF120DED0529E5297002058C
:10082F0028C39408E5286480948040B80527E527FD
:10083F0070020526020780E4F526F527AB23AA24CC
:10084F00A925120E2FEF7803C333CE33CED8F9FF7D
:10085F00C3E49FFF74049EFEC3E5279FEE6480F8F8
:10086F00E526648098500FE4FF120DED0527E5276C
:06087F007002052680C690
:010885002250
:100E0500E4FF120DD57F10120DD57F40120DD57F51
:050E1500B0120DD52212
:060886008B118A12891398
:10088C00E4F514F515F516F517F514F515AB11AAD5
:10089C0012A913120E2FC3E5159FEE6480F8E51410
:1008AC00648098400302095FAB11AA12A913851545
:1008BC0082851483120960FF640D6009EF640A607D
:1008CC0004EFB40B36E4F516F517E51725E0FFE554
:1008DC001633FE74032FF58274003EF583E4937493
:1008EC000193FF120DED0517E51770020516C39461
:1008FC0008E5166480948040D1804DE4F516F51718
:10090C00AB11AA12A913851582851483120960757F
:10091C00F008A42517FFE51635F0FEEF25E0FFEEF5
:10092C0033FE74032FF58274FE3EF583E493740159
:10093C0093FF120DED0517E51770020516C3940809
:10094C00E5166480948040B80515E5157002051411
:03095C00020899F5
:01095F002275
:040E9A0075B60F22F8
:100D8100E4FFFEE4FDFC0DBD00010CED64134C70AD
:0C0D9100F50FBF00010EEF640A4E70E782
:010D9D002233
:100E4400AB07AA06EB1BAE0270011A4E6005120D29
:040E54008180F12286
:100DBA00E5B120E6037F0322E5B120E5037F0222A5
:0B0DCA00E5B120E4037F01227F00223E
:100CE70075B1FE7FF47E01120E4475B1FD7FF47E6F
:100CF70001120E4475B1FB7FF47E01120E4475B1EB
:090D0700F77FF47E01120E442274
:100D100075B1F77FF47E01120E4475B1FB7FF47E4E
:100D200001120E4475B1FD7FF47E01120E4475B1BF
:090D3000FE7FF47E01120E442244
:100E1A0075B1F07FF47E01120E4475B1FF7FF47E46
:050E2A0001120E44223C
:100C1B007901120E9A120DBAEF14600E14600714BC
:100C2B00700A79038006790280027901E924FE605B
:100C3B000C14600E240270DD120CE780D8120E1A11
:090C4B0080D3120D1080CE80CC84
:010C5400227D
:100CBD002D2D2D2D2D2D2D2D2D2D2D2D2D2D2D2D57
:100CCD000048756D69646974793A00202020200010
:0A0CDD0054656D70657261743A0091
:0C0E5E000A190000000000000000000065
:100BDE00EFC4540FF531EF540FF532E531C3940ADB
:100BEE00500AE5312430FF120C558008E5312457A8
:100BFE00FF120C55E532C3940A5009E5322430FF3A
:0C0C0E00120C5522E5322457FF120C5541
:010C1A0022B7
:10062300E4F519F51AF51BF51CF51DF51EF51FF577
:1006330020F521F522F51075B5FFC2B47F147E00B5
:10064300120E44D2B475B5EF30B40BE510C394FE6B
:100653005004051080F2E510C394FE50DAE4F5105F
:1006630020B40BE510C394FE5004051080F2E5108E
:10067300C394FE50C230B40BE510C394FE5004057E
:100683001080F2E510C394FE50ADE4F510F50EE4CE
:10069300F50FE4F51030B4FD30B404051080F9E52E
:1006A30010D3940F402BE50E25E02419F8C000E683
:1006B300FC08E6FD74807E00A80F088006CEA2E742
:1006C30013CE13D8F8FFEC4EFEED4FD000A606086C
:1006D300F6050FE50FB408BA050EE50EB405B07BB9
:1006E300FF7A0C79BD1208867BFF7A0C79CE12084B
:1006F30086AE19AF1A7C007D0A12098DEF2430FFF4
:10070300120C55AE19AF1A7C007D0A12098DED2427
:1007130030FF120C557F25120C557BFF7A0C79D8CC
:100723001208867BFF7A0C79DD120886AE1DAF1E98
:100733007C007D0A12098DEF2430FF120C55AE1D8B
:10074300AF1E7C007D0A12098DED2430FF120C557B
:050753007F43120C556C
:01075800227E
:03000000020A31C0
:0C0A3100787FE4F6D8FD758132020A7867
:10096000BB010CE58229F582E5833AF583E022504C
:1009700006E92582F8E622BBFE06E92582F8E22296
:0D098000E58229F582E5833AF583E49322B0
:10098D00C2D5EC30E709B2D5E4C39DFDE49CFCEE85
:10099D0030E715B2D5E4C39FFFE49EFE1209DCC318
:1009AD00E49DFDE49CFC80031209DC30D507C3E413
:0609BD009FFFE49EFE22F4
:100E2F00E4FFFE1209C3600C0FEF70010E09E970A9
:050E3F00F20A80EF2221
:100A3D00020B3BE493A3F8E493A34003F68001F289
:100A4D0008DFF48029E493A3F85407240CC8C333BA
:100A5D00C4540F4420C8834004F456800146F6DF89
:100A6D00E4800B0102040810204080900E58E47EB3
:100A7D00019360BCA3FF543F30E509541FFEE4937E
:100A8D00A360010ECF54C025E060A840B8E493A345
:100A9D00FAE493A3F8E493A3C8C582C8CAC583CA70
:100AAD00F0A3C8C582C8CAC583CADFE9DEE780BE28
:010E6A000087
:1009C300BB010689828A83E0225002E722BBFE0232
:0909D300E32289828A83E4932265
:1009DC00BC000BBE0029EF8DF084FFADF022E4CCFF
:1009EC00F875F008EF2FFFEE33FEEC33FCEE9DECC8
:1009FC00984005FCEE9DFE0FD5F0E9E4CEFD22ED0E
:100A0C00F8F5F0EE8420D21CFEADF075F008EF2F57
:100A1C00FFED33FD4007985006D5F0F222C398FD48
:050A2C000FD5F0EA22E5
:00000001FF
