:100773004D51497364700076312F002F7468696E90
:1007830067732F002F646174612F002B2B2B0041A3
:10079300542B43495053544152543D225443502205
:1007A3002C226D7174742E6D79646576696365733B
:1007B3002E636F6D222C313838330041542B525342
:1007C300540041542B43574A41503D227A6869797A
:1007D3006F6E675F79616E67222C22323639393644
:1007E300303134220041542B43495053454E440089
:1007F30041542B4349504D4F44453D310054656DA1
:1008030070657261747572320072657374617274AB
:100813000064633737633232302D346438332D311B
:100823003165372D393064632D6364363339636141
:1008330039303961380037373236316262302D341E
:100843006432652D313165372D613163382D303395
:10085300613331306230376262320036656364631C
:100863003734313939643462343364376330316354
:100873003463363430313632623731616235306158
:0408830037376300A0
:10088700E4F558F5597F1012138D75580075590CFA
:100897007BFF7A087914121335EF2402FFE43EFE3A
:1008A700EF2559F559EE3558F5587BFF7A08793910
:1008B700121335EF2402FFE43EFEEF2559F559EEFA
:1008C7003558F5587BFF7A08795E121335EF240205
:0E08D700FFE43EFEEF2559F559EE3558F55871
:1008E500AE58AF597C007D80120C6C8D5AAE58AF56
:1008F500597C007D80120C6C8E588F59D3E5599424
:1009050000E558648094804003435A80AF5A12131F
:010915008D54
:10091600D3E5599400E5586480948050C27F067EE2
:10092600001211DF7BFF7A07797312100D7F031215
:10093600138D7FC212138D7F3C7E001211DF7BFF69
:100946007A0879141213351211DF7BFF7A087914AD
:1009560012100D7BFF7A0879391213351211DF7BDD
:10096600FF7A08793912100D7BFF7A08795E121327
:10097600351211DF7BFF7A08795E12100D7F887EB3
:0E0986001312134A120EA77F887E1312134A13
:010994002240
:060995008F588C598D5AA9
:10099B00E4F55BF55C7F3212138D755B00755C18AB
:1009AB007BFF7A087914121335EF255CF55CEE3575
:1009BB005BF55B7BFF7A087939121335EF255CF514
:0609CB005CEE355BF55BFC
:1009D100AE5BAF5C7C007D80120C6C8D5DAE5BAF5D
:1009E1005C7C007D80120C6C8E5B8F5CD3E55C942B
:1009F10000E55B648094804003435D80AF5D12132A
:010A01008D67
:100A0200D3E55C9400E55B6480948050C2E4FF12FD
:100A1200138D7F5A12138D7BFF7A07797A12100D8C
:100A22007BFF7A08793912100D7BFF7A07797E12E3
:100A3200100D7BFF7A08791412100D7BFF7A07796B
:100A42008712100DE5582430FF12138DE4FF1213A4
:100A52008DE4FF12138DAE59AF5A7C007D0A120C41
:100A62006CEF2430FF12138DAE59AF5A7C007D0A11
:0A0A7200120C6CED2430FF12138DFE
:010A7C002257
:10120400E4F54EE54E70127BFF7A07798E12100DCD
:101214007FB87E0B12134A80EA120F107FB87E0B40
:0412240012134A2235
:1010DE007BFF7A07799212100D7F0D12138D7F0A06
:1010EE0012138DE4FF12138D7F107E2712134A12F6
:0D10FE000F107F887E1312134A120F10226C
:10110B007BFF7A0779BE12100D7F0D12138D7F0AAC
:10111B0012138DE4FF12138D7F107E2712134A12C8
:0D112B000F107F987E3A12134A120F102207
:101138007BFF7A0779C512100D7F0D12138D7F0A78
:1011480012138DE4FF12138D7F107E2712134A129B
:0D1158000F107F107E2712134A120F102275
:101228007BFF7A0779E812100D7F0D12138D7F0A64
:1012380012138DE4FF12138D7F107E2712134A12AA
:031248000F102262
:10124B007BFF7A0779F312100D7F0D12138D7F0A36
:10125B0012138DE4FF12138D7F107E2712134A1287
:03126B000F10223F
:100D1000E4F552F553F554F555F556F55775B5FF0D
:100D200075B3FF75B60F7FE87E0312134AD2B51272
:100D3000139B120E291210AE7BFF7A08790012065F
:100D4000461212C21210AE7BFF7A08790C120646C8
:100D50001208871210AE120A7DE562FD7C007F0149
:100D6000120995E564FD7C007F02120995E5554561
:100D700054700FFDFC7F03120995755400755501E1
:100D8000800E7D017C007F03120995E4F554F55532
:0C0D90007FB87E0B12134AE4F54E80BAC7
:010D9C002234
:05139B00D290D2912266
:06139500C29000C291228B
:09136900D290D291C290C29122EF
:09137200C291C290D291D29022E6
:09137B00C290D291C291D29022DD
:09138400D290D291C291D29022C4
:1011B700E4FEEF20E704C2908002D290D2910000B3
:1011C70000C291EF25E0FF0EBE08E7D290D2910052
:0711D700A290E433FFC29176
:0111DE0022EE
:10128B00E4FFFED291309003430701EEC394075065
:0B129B0004EF25E0FFC2910EBE08E842
:0112A6002225
:1000260000000000000000000000000000000000CA
:10003600000000000000005F005F000000000000FC
:100046000000000000030007000000070003000096
:10005600000000100074001C0077001C001700044C
:1000660000000024002E002A007F002A003A00101B
:100076000000004C006A0076001A006A0056003341
:1000860000000030007A004F005D0037007A00481B
:10009600000000000004000700030000000000004C
:1000A600000000000000001C003E0063004100004C
:1000B6000000000000410063003E001C000000003C
:1000C60000000008002A003E001C003E002A00082E
:1000D600000000080008003E003E0008000800007E
:1000E600000000000000006000600000000000004A
:1000F60000000008000800080008000800080000CA
:100106000000000000000060006000000000000029
:100116000000006000300018000C0006000300011B
:100126000000001C003E00610043003E001C000071
:10013600000000000044007F007F00400000000037
:1001460000000046006700710059004F006600007D
:100156000000002200630049004D007F00320000CD
:1001660000000018001C0052007F007F00500000B5
:100176000000002F006F00450045007D003900009B
:100186000000003C007E004B004900790030000072
:100196000000000700430071007D000F000300000F
:1001A60000000036007F004D0059007F0036000039
:1001B60000000006004F00490069003F001E0000D5
:1001C600000000000000006600660000000000005D
:1001D600000000000000006600660000000000004D
:1001E600000000000008001C00360063004100000B
:1001F6000000001400140014001400140014000081
:1002060000000000004100630036001C00080000EA
:1002160000000002000700510059000F0006000010
:100226000000003E0041005D0055005D0051001ECB
:10023600000000400070001D0017001F00780060DD
:1002460000000041007F007F0049004F007E003023
:100256000000001C003E00630041004100420027F0
:1002660000000041007F007F00410063003E001C4B
:1002760000000041007F007F0049005D00410063EF
:1002860000000041007F007F0049001D00010003BF
:100296000000001C003E0063004100510072007720
:1002A6000000007F007F00080008007F007F00003C
:1002B600000000000041007F007F004100000000B8
:1002C60000000030007000410041007F003F000147
:1002D6000000007F007F0008001C007700630041DB
:1002E60000000041007F007F004100400060007078
:1002F6000000007F007E000C0018000C007E007FCE
:100306000000007F007E000C00180030007F007F98
:100316000000001C003E006300410063003E001C1C
:1003260000000041007F007F00490009000F000621
:100336000000001C003E006300510063003E001CEC
:100346000000007F007F00090019007F0066004062
:1003560000000066006F004D0059007B003300006E
:10036600000000030041007F007F00410003000001
:100376000000003F007F004000400040007F003F3B
:1003860000000003000F003D0070001D0007000183
:100396000000000F007F0030001C0030007F000FBF
:1003A600000000630077001C001C0077006300005B
:1003B600000100030047007C0078004700030001AD
:1003C6000000006700730059004D006700730000CD
:1003D600000000000000007F007F00410041000097
:1003E6000000000100030006000C00180030006049
:1003F6000000000000410041007F007F0000000077
:1004060000000000000400060003000600040000CF
:1004160000000000000000000000000000000000D6
:1004260000000000000100030006000400000000B8
:1004360000000068006C00540054003C0078004046
:1004460000000041007F003F006C0044007C003843
:1004560000000038007C00440044006C002C0000C2
:1004660000000038007C00440049003F007F004047
:1004760000000038007C00540054005C0058000066
:10048600000000000048007E007F0049000B0002CB
:1004960000000048007C00340034002C0068004452
:1004A60000000041007F007F00080004007C007807
:1004B600000000000044007D007D004000000000B8
:1004C6000000006000600004007D007D0000000068
:1004D60000000041007F007F00100078006C00449F
:1004E600000000000041007F007F00400000000087
:1004F6000000007C007C000C0078000C007C00787A
:1005060000000044007C007C00080004007C0078A9
:1005160000000038007C00440044007C00380000E5
:1005260000000004007C007800240024003C001831
:1005360000000018003C002400240078007C000025
:1005460000000044007C0078004C0004001C0018E9
:1005560000000048005C005C007400740024000089
:10056600000000000004003E007F0044002400005C
:100576000000003C007C00400040003C007C004045
:1005860000000004001C003C00600030001C000459
:100596000000001C007C0030001C0030007C001CA9
:1005A60000000044006C003C00100078006C004421
:1005B60000000044004C001C00700064001C000C8D
:1005C6000000004C00640074005C004C00640000F5
:1005D600000000080008003E0077004100410000CE
:1005E600000000000000007F007F00000000000007
:1005F6000000004100410077003E000800080000AE
:1006060000000002000100010003000200020001D8
:10061600000000600078004E0047005E0078006031
:100626000000001C003E002300410041004200275C
:100636000000003D007D00400041003D007C004080
:1012DB008F601213957F781211B7E4FF1211B7AF1D
:0812EB00601211B71213722208
:1012F3008F601213957F781211B77F401211B7AF29
:08130300601211B712137222EF
:100E29007FAE1212DB7FD51212DB7F801212DB7FBD
:100E3900A81212DB7F3F1212DB7FD31212DBE4FF11
:100E49001212DB7F401212DB7F8D1212DB7F14122C
:100E590012DB7F201212DBE4FF1212DB7FA11212D8
:100E6900DB7FC81212DB7FDA1212DB7F121212DB70
:100E79007F811212DB7FCF1212DB7FD91212DB7F47
:100E8900F11212DB7FDB1212DB7F401212DB7FA42F
:0E0E99001212DB7FA61212DB7FAF1212DB22D9
:1010AE00E4FF1212DB7F101212DB7F401212DB7F85
:1010BE00B01212DBE4F55EF55FE4FF1212F3055F8A
:0F10CE00E55F7002055EC3E55E6480948440EACE
:0110DD0022F0
:020FD5008F5E2D
:100FD700E4F55FE55E75F008A47C00255FFFEC355E
:100FE700F0FEEF25E0FFEE33FE74262FF58274FE48
:100FF7003EF583E493740193FF1212F3055FE55FF7
:05100700C3940840CE77
:01100C0022C1
:10000300E4FF1212DB7F101212DB7F401212DBE4DB
:0F001300FFFE0FBF00010EE4B507F7EEB404F3D4
:0100220022BB
:060646008B588A59895A05
:10064C00E4F55BF55CF55DF55EFF1212DB7F1012D5
:10065C0012DB7F401212DB7FB01212DBE4F55BF58C
:10066C005CAB58AA59A95A121335C3E55C9FEE64CA
:10067C0080F8E55B6480984003020733AB58AA59B5
:10068C00A95A855C82855B83120C3FFF640D60095F
:10069C00EF640A6004EFB40B36E4F55DF55EE55EDD
:1006AC0025E0FFE55D33FE74262FF58274003EF5E0
:1006BC0083E493740193FF1212F3055EE55E7002FE
:1006CC00055DC39408E55D6480948040D1804DE461
:1006DC00F55DF55EAB58AA59A95A855C82855B839A
:1006EC00120C3F75F008A4255EFFE55D35F0FEEFBA
:1006FC0025E0FFEE33FE74262FF58274FE3EF58363
:10070C00E493740193FF1212F3055EE55E7002052B
:10071C005DC39408E55D6480948040B8055CE55C3D
:10072C007002055B02066DE4F55BF55CAB58AA59EB
:10073C00A95A121335EF7803C333CE33CED8F9FF51
:10074C00C3E49FFF74049EFEC3E55C9FEE6480F8D7
:10075C00E55B648098500FE4FF1212F3055CE55CD6
:06076C007002055B80C66F
:010772002264
:10130B00E4FF1212DB7F101212DB7F401212DB7F25
:05131B00B01212DB22FC
:060B65008B598A5A895BDE
:100B6B00E4F55CF55DF55EF55FF55CF55DAB59AAFB
:100B7B005AA95B121335C3E55D9FEE6480F8E55C03
:100B8B006480984003020C3EAB59AA5AA95B855D61
:100B9B0082855C83120C3FFF640D6009EF640A6071
:100BAB0004EFB40B36E4F55EF55FE55F25E0FFE59A
:100BBB005E33FE74262FF58274003EF583E4937446
:100BCB000193FF1212F3055FE55F7002055EC3949C
:100BDB0008E55E6480948040D1804DE4F55EF55F5E
:100BEB00AB59AA5AA95B855D82855C83120C3F7554
:100BFB00F008A4255FFFE55E35F0FEEF25E0FFEE84
:100C0B0033FE74262FF58274FE3EF583E493740154
:100C1B0093FF1212F3055FE55F7002055EC3940844
:100C2B00E55E6480948040B8055DE55D7002055C0F
:030C3B00020B7831
:010C3E002293
:0413A00075B60F22ED
:10126E00E4FFFEE4FDFC0DBD00010CED64134C70BB
:0C127E00F50FBF00010EEF640A4E70E790
:01128A002241
:10134A00AB07AA06EB1BAE0270011A4E6005121219
:04135A006E80F1228E
:1012A700E5B120E6037F0322E5B120E5037F0222B3
:0B12B700E5B120E4037F01227F00224C
:1011650075B1FE7FF47E0112134A75B1FD7FF47EE1
:101175000112134A75B1FB7FF47E0112134A75B152
:09118500F77FF47E0112134A22E7
:10118E0075B1F77FF47E0112134A75B1FB7FF47EC1
:10119E000112134A75B1FD7FF47E0112134A75B127
:0911AE00FE7FF47E0112134A22B7
:1013200075B1F07FF47E0112134A75B1FF7FF47E30
:051330000112134A2226
:100F9B0079011213A01212A7EF14600E146007143C
:100FAB00700A79038006790280027901E924FE60D8
:100FBB000C14600E240270DD12116580D812132000
:090FCB0080D312118E80CE80CC7F
:010FD40022FA
:0213A400200027
:07135E000562000000000021
:100F5E00EFC4540FF573EF540FF574E573C3940A91
:100F6E00500AE5732430FF120FD58008E57324571D
:100F7E00FF120FD5E574C3940A5009E5742430FFAF
:0C0F8E00120FD522E5742457FF120FD576
:010F9A002234
:100A7D00E4F562F563F564F565F566F55875B5FF52
:100A8D00C2B47F147E0012134AD2B475B5EFC2AC56
:100A9D0030B40BE558C394FE5004055880F2E55868
:100AAD00C394FE50D8E4F55820B40BE558C394FE1A
:100ABD005004055880F2E558C394FE50C030B40B75
:100ACD00E558C394FE5004055880F2E558C394FED2
:100ADD0050ABE4F558FFE4FEE4F55830B4FD30B406
:100AED0004055880F9E558D3941F401774622FF808
:100AFD00C000E6FD7480A806088002C313D8FC4D23
:100B0D00D000F60EBE08D10FBF05CBD2AC1210AE81
:100B1D00E56275F00A842430FF120FD5E56275F099
:100B2D000A84E5F02430FF120FD57F25120FD57BF7
:100B3D00FF7A1379A4120B65E56475F00A842430ED
:100B4D00FF120FD5E56475F00A84E5F02430FF122D
:070B5D000FD57F43120FD5F5
:010B6400226E
:03136500014E0036
:1012C20090E600740AF090E6087401F053877F7587
:0912D2009850D2ACD28CD2AF22AC
:06100D008B5E8A5F896022
:10101300E4F561AB5EAA5FA960121335C3E5619F76
:10102300EE6480F87480985017AB5EAA5FA9608560
:101033006182758300120C3FFF12138D056180D30B
:01104300228A
:061044008B678A688969D0
:10104A00E4F56AAB67AA68A969121335C3E56A9F12
:10105A00EE6480F87480985017AB67AA68A969850E
:10106A006A82758300120C3FFF12138D056A80D3C2
:01107A002253
:100EA7001210AEE4FF1212DB7F101212DB7F40122A
:100EB70012DB7FB01212DBE4F55DE55DC3954E50A2
:100EC700477408255DF8E6FFC4540FF55BEF540F30
:100ED700F55CE55BC3940A500AE55B2430FF120F0B
:100EE700D58008E55B2457FF120FD5E55CC3940A4C
:100EF700500AE55C2430FF120FD58008E55C2457C3
:080F0700FF120FD5055D80B259
:010F0F0022BF
:100F10001210AEE4FF1212DB7F101212DB7F4012C0
:100F200012DB7FB01212DBE4F570E570C3954E5012
:100F30002974082570F8E6FF640D6009EF640A6003
:100F400004EFB40B077F20120FD5800A74082570B8
:0D0F5000F8E6FF120FD5057080D0E4F54ED5
:010F5D002271
:1011DF00AB07AA067C017D00120C6C8F993099FD2C
:1011EF00C299AE02AF037C017D00120C6C8D993059
:0511FF0099FDC29922D8
:08138D008F993099FDC29922ED
:0300230002107B4D
:09107B00C0E0C0D075D000C00037
:10108400309820C298E54EC3944650147408254EF7
:10109400F8A699054E7407254EF8E6B40A058003B0
:0310A400754E0086
:0710A700D000D0D0D0E032F0
:03000000020D9D51
:0C0D9D00787FE4F6D8FD758174020DE447
:100C3F00BB010CE58229F582E5833AF583E022506A
:100C4F0006E92582F8E622BBFE06E92582F8E222B4
:0D0C5F00E58229F582E5833AF583E49322CE
:100C6C00C2D5EC30E709B2D5E4C39DFDE49CFCEEA3
:100C7C0030E715B2D5E4C39FFFE49EFE120CBBC354
:100C8C00E49DFDE49CFC8003120CBB30D507C3E44F
:060C9C009FFFE49EFE2212
:10133500E4FFFE120CA2600C0FEF70010E09E970BC
:05134500F20A80EF2216
:100DA900020D10E493A3F8E493A34003F68001F243
:100DB90008DFF48029E493A3F85407240CC8C3334B
:100DC900C4540F4420C8834004F456800146F6DF1A
:100DD900E4800B010204081020408090135EE47E39
:100DE900019360BCA3FF543F30E509541FFEE4930F
:100DF900A360010ECF54C025E060A840B8E493A3D6
:100E0900FAE493A3F8E493A3C8C582C8CAC583CA00
:100E1900F0A3C8C582C8CAC583CADFE9DEE780BEB8
:011368000084
:100CA200BB010689828A83E0225002E722BBFE0250
:090CB200E32289828A83E4932283
:100CBB00BC000BBE0029EF8DF084FFADF022E4CC1D
:100CCB00F875F008EF2FFFEE33FEEC33FCEE9DECE6
:100CDB00984005FCEE9DFE0FD5F0E9E4CEFD22ED2C
:100CEB00F8F5F0EE8420D21CFEADF075F008EF2F76
:100CFB00FFED33FD4007985006D5F0F222C398FD67
:050D0B000FD5F0EA2203
:00000001FF
