:100BD000202054656D7065726174757265202620E1
:100BE000002020202048756D6964697479202020D8
:100BF00020002020202020323031372D313020209D
:100C000020200020202020206279204A6F686E205A
:100C1000202020002B2B2B0041542B5253540041F9
:100C2000542B4349504D55583D310041542B4349B5
:100C30005053544152543D302C22554450222C22C2
:100C40003139322E3136382E322E33222C34343490
:100C5000352C343434352C32004368616E6E656C4B
:100C600020313A204F4E004368616E6E656C203132
:060C70003A204F46460049
:06112000017C01017D00CD
:10064600E4F552F553F554F555F556F55775B5FFDE
:1006560075B3FF75B60F7FE87E03121175D2B5C26A
:10066600B712114B1211BB120D02120F8A1211365C
:100676007BFF7A0B79D0120A257BFF7A0B79E11280
:100686000A257BFF7A0B79F2120A257BFF7A0C7911
:1006960003120A251208F97F887E1312117580CA83
:1006A60080FE7BFF7A0C7914120EE97F887E131286
:1006B6001175120D02120F8A1211367BFF7A0C7910
:1006C60018120EE97F0D1211AD7F0A1211ADE4FF6B
:1006D6001211AD7F107E27121175120DEC7F887EE8
:1006E60013121175E4F54E7BFF7A0C791F120EE991
:1006F6007F0D1211AD7F0A1211ADE4FF1211AD7F0D
:10070600887E13121175120DEC7FE87E03121175A7
:100716007BFF7A0C792B120EE97F0D1211AD7F0A41
:100726001211ADE4FF1211AD7FB87E0B12117512D6
:100736000DEC7FE87E03121175E4F554F5551210A1
:10074600BCEF6029B2B76357FF6356FFE5574556BE
:10075600600B7BFF7A0C79591207CC80097BFF7AF4
:100766000C79671207CC7FF47E011211750555E5E9
:100776005570020554C39464E5546480948040BE69
:10078600E54EB40FB42407F8E61392B7120D021221
:100796000F8A7407254EF8E624D0600B7BFF7A0C8F
:1007A60079591207CC80097BFF7A0C79671207CC3E
:1007B6007407254EF8E624D0F557E434FFF556E4E1
:0507C600F54E02073FA3
:0107CB00220B
:0511BB00D290D2912248
:0611B500C29000C291226D
:09118900D290D291C290C29122D1
:09119200C291C290D291D29022C8
:09119B00C290D291C291D29022BF
:0911A400D290D291C291D29022A6
:10103600E4FEEF20E704C2908002D290D291000035
:1010460000C291EF25E0FF0EBE08E7D290D29100D4
:07105600A290E433FFC291F8
:01105D002270
:1010A000E4FFFED291309003430701EEC394075052
:0B10B00004EF25E0FFC2910EBE08E82F
:0110BB002212
:03112600014E0077
:1010D70090E600740AF090E6087401F053877F7574
:0910E7009850D2ACD28CD2AF2299
:060EE9008B588A59895A5A
:100EEF00E4F55BAB58AA59A95A121160C3E55B9F91
:100EFF00EE6480F87480985017AB58AA59A95A8598
:100F0F005B82758300120AFFFF1211AD055B80D360
:010F1F0022AF
:060F20008B728A738974D4
:100F2600E4F575AB72AA73A974121160C3E5759FD7
:100F3600EE6480F87480985017AB72AA73A9748512
:100F46007582758300120AFFFF1211AD057580D3F5
:010F56002278
:100D8000120F8AE4FF1210F07F101210F07F401251
:100D900010F07FB01210F0E4F578E578C3954E506E
:100DA0004774082578F8E6FFC4540FF576EF540F22
:100DB000F577E576C3940A500AE5762430FF120EE3
:100DC000B18008E5762457FF120EB1E577C3940A87
:100DD000500AE5772430FF120EB18008E5772457DA
:0B0DE000FF120EB1057880B2E4F54E62
:010DEB0022E5
:100DEC00120F8AE4FF1210F07F101210F07F4012E5
:100DFC0010F07FB01210F0E4F55AE55AC3954E503E
:100E0C00297408255AF8E6FF640D6009EF640A603E
:100E1C0004EFB40B077F20120EB1800A7408255A18
:0D0E2C00F8E6FF120EB1055A80D0E4F54E35
:010E39002296
:10105E00AB07AA067C017D00120B2C8F993099FDEF
:10106E00C299AE02AF037C017D00120B2C8D99301C
:05107E0099FDC299225A
:0811AD008F993099FDC29922CF
:03002300020F5772
:090F5700C0E0C0D075D000C0005C
:100F6000309820C298E54EC3944650147408254E1C
:100F7000F8A699054E7407254EF8E6B40A058003D5
:030F8000754E00AB
:070F8300D000D0D0D0E03215
:1000260000000000000000000000000000000000CA
:10003600000000000000005F005F000000000000FC
:100046000000000000030007000000070003000096
:10005600000000100074001C0077001C001700044C
:1000660000000024002E002A007F002A003A00101B
:100076000000004C006A0076001A006A0056003341
:1000860000000030007A004F005D0037007A00481B
:10009600000000000004000700030000000000004C
:1000A600000000000000001C003E0063004100004C
:1000B6000000000000410063003E001C000000003C
:1000C60000000008002A003E001C003E002A00082E
:1000D600000000080008003E003E0008000800007E
:1000E600000000000000006000600000000000004A
:1000F60000000008000800080008000800080000CA
:100106000000000000000060006000000000000029
:100116000000006000300018000C0006000300011B
:100126000000001C003E00610043003E001C000071
:10013600000000000044007F007F00400000000037
:1001460000000046006700710059004F006600007D
:100156000000002200630049004D007F00320000CD
:1001660000000018001C0052007F007F00500000B5
:100176000000002F006F00450045007D003900009B
:100186000000003C007E004B004900790030000072
:100196000000000700430071007D000F000300000F
:1001A60000000036007F004D0059007F0036000039
:1001B60000000006004F00490069003F001E0000D5
:1001C600000000000000006600660000000000005D
:1001D600000000000000006600660000000000004D
:1001E600000000000008001C00360063004100000B
:1001F6000000001400140014001400140014000081
:1002060000000000004100630036001C00080000EA
:1002160000000002000700510059000F0006000010
:100226000000003E0041005D0055005D0051001ECB
:10023600000000400070001D0017001F00780060DD
:1002460000000041007F007F0049004F007E003023
:100256000000001C003E00630041004100420027F0
:1002660000000041007F007F00410063003E001C4B
:1002760000000041007F007F0049005D00410063EF
:1002860000000041007F007F0049001D00010003BF
:100296000000001C003E0063004100510072007720
:1002A6000000007F007F00080008007F007F00003C
:1002B600000000000041007F007F004100000000B8
:1002C60000000030007000410041007F003F000147
:1002D6000000007F007F0008001C007700630041DB
:1002E60000000041007F007F004100400060007078
:1002F6000000007F007E000C0018000C007E007FCE
:100306000000007F007E000C00180030007F007F98
:100316000000001C003E006300410063003E001C1C
:1003260000000041007F007F00490009000F000621
:100336000000001C003E006300510063003E001CEC
:100346000000007F007F00090019007F0066004062
:1003560000000066006F004D0059007B003300006E
:10036600000000030041007F007F00410003000001
:100376000000003F007F004000400040007F003F3B
:1003860000000003000F003D0070001D0007000183
:100396000000000F007F0030001C0030007F000FBF
:1003A600000000630077001C001C0077006300005B
:1003B600000100030047007C0078004700030001AD
:1003C6000000006700730059004D006700730000CD
:1003D600000000000000007F007F00410041000097
:1003E6000000000100030006000C00180030006049
:1003F6000000000000410041007F007F0000000077
:1004060000000000000400060003000600040000CF
:1004160000000000000000000000000000000000D6
:1004260000000000000100030006000400000000B8
:1004360000000068006C00540054003C0078004046
:1004460000000041007F003F006C0044007C003843
:1004560000000038007C00440044006C002C0000C2
:1004660000000038007C00440049003F007F004047
:1004760000000038007C00540054005C0058000066
:10048600000000000048007E007F0049000B0002CB
:1004960000000048007C00340034002C0068004452
:1004A60000000041007F007F00080004007C007807
:1004B600000000000044007D007D004000000000B8
:1004C6000000006000600004007D007D0000000068
:1004D60000000041007F007F00100078006C00449F
:1004E600000000000041007F007F00400000000087
:1004F6000000007C007C000C0078000C007C00787A
:1005060000000044007C007C00080004007C0078A9
:1005160000000038007C00440044007C00380000E5
:1005260000000004007C007800240024003C001831
:1005360000000018003C002400240078007C000025
:1005460000000044007C0078004C0004001C0018E9
:1005560000000048005C005C007400740024000089
:10056600000000000004003E007F0044002400005C
:100576000000003C007C00400040003C007C004045
:1005860000000004001C003C00600030001C000459
:100596000000001C007C0030001C0030007C001CA9
:1005A60000000044006C003C00100078006C004421
:1005B60000000044004C001C00700064001C000C8D
:1005C6000000004C00640074005C004C00640000F5
:1005D600000000080008003E0077004100410000CE
:1005E600000000000000007F007F00000000000007
:1005F6000000004100410077003E000800080000AE
:1006060000000002000100010003000200020001D8
:10061600000000600078004E0047005E0078006031
:100626000000001C003E002300410041004200275C
:100636000000003D007D00400041003D007C004080
:1010F0008F5F1211B57F78121036E4FF121036AFF1
:081100005F1210361211922259
:101108008F671211B57F781210367F40121036AFF4
:08111800671210361211922239
:100D02007FAE1210F07FD51210F07F801210F07FAC
:100D1200A81210F07F3F1210F07FD31210F0E4FF00
:100D22001210F07F401210F07F8D1210F07F14121B
:100D320010F07F201210F0E4FF1210F07FA11210C9
:100D4200F07FC81210F07FDA1210F07F121210F04A
:100D52007F811210F07FCF1210F07FD91210F07F36
:100D6200F11210F07FDB1210F07F401210F07FA41E
:0E0D72001210F07FA61210F07FAF1210F022C8
:100F8A00E4FF1210F07F101210F07F401210F07F71
:100F9A00B01210F0E4F55BF55CE4FF121108055C91
:0F0FAA00E55C7002055BC3E55B6480948440EAFC
:010FB9002215
:020EB1008F624E
:100EB300E4F563E56275F008A47C002563FFEC3577
:100EC300F0FEEF25E0FFEE33FE74262FF58274FE6D
:100ED3003EF583E493740193FF1211080563E56300
:050EE300C3940840CE9D
:010EE80022E7
:10000300E4FF1210F07F101210F07F401210F0E4A2
:0F001300FFFE0FBF00010EE4B507F7EEB404F3D4
:0100220022BB
:0607CC008B588A59895A7E
:1007D200E4F55BF55CF55DF55EFF1210F07F10123B
:1007E20010F07F401210F07FB01210F0E4F55BF5CC
:1007F2005CAB58AA59A95A121160C3E55C9FEE641A
:1008020080F8E55B64809840030208B9AB58AA59A6
:10081200A95A855C82855B83120AFFFF640D600919
:10082200EF640A6004EFB40B36E4F55DF55EE55E55
:1008320025E0FFE55D33FE74262FF58274003EF558
:1008420083E493740193FF121108055EE55E700262
:10085200055DC39408E55D6480948040D1804DE4D9
:10086200F55DF55EAB58AA59A95A855C82855B8312
:10087200120AFF75F008A4255EFFE55D35F0FEEF74
:1008820025E0FFEE33FE74262FF58274FE3EF583DB
:10089200E493740193FF121108055EE55E70020590
:1008A2005DC39408E55D6480948040B8055CE55CB6
:1008B2007002055B0207F3E4F55BF55CAB58AA59DD
:1008C200A95A121160EF7803C333CE33CED8F9FFA1
:1008D200C3E49FFF74049EFEC3E55C9FEE6480F850
:1008E200E55B648098500FE4FF121108055CE55C3B
:0608F2007002055B80C6E8
:0108F80022DD
:10113600E4FF1210F07F101210F07F401210F07FC3
:05114600B01210F022C0
:060A25008B608A6189620A
:100A2B00E4F563F564F565F566F563F564AB60AA0B
:100A3B0061A962121160C3E5649FEE6480F8E563FF
:100A4B006480984003020AFEAB60AA61A9628564C8
:100A5B0082856383120AFFFF640D6009EF640A60ED
:100A6B0004EFB40B36E4F565F566E56625E0FFE5C6
:100A7B006533FE74262FF58274003EF583E4937480
:100A8B000193FF1211080566E56670020565C394B4
:100A9B0008E5656480948040D1804DE4F565F5668A
:100AAB00AB60AA61A962856482856383120AFF75B4
:100ABB00F008A42566FFE56535F0FEEF25E0FFEEB7
:100ACB0033FE74262FF58274FE3EF583E493740196
:100ADB0093FF1211080566E56670020565C394085D
:100AEB00E5656480948040B80564E5647002056335
:030AFB00020A38B4
:010AFE0022D5
:0411C00075B60F22CF
:10108300E4FFFEE4FDFC0DBD00010CED64134C70A8
:0C109300F50FBF00010EEF640A4E70E77D
:01109F00222E
:10117500AB07AA06EB1BAE0270011A4E60051210F2
:041185008380F12250
:1010BC00E5B120E6037F0322E5B120E5037F0222A0
:0B10CC00E5B120E4037F01227F002239
:100FE40075B1FE7FF47E0112117575B1FD7FF47E3B
:100FF4000112117575B1FB7FF47E0112117575B183
:09100400F77FF47E011211752240
:10100D0075B1F77FF47E0112117575B1FB7FF47E1A
:10101D000112117575B1FD7FF47E0112117575B157
:09102D00FE7FF47E011211752210
:10114B0075B1F07FF47E0112117575B1FF7FF47EDE
:05115B000112117522D4
:100E770079011211C01210BCEF14600E1460071430
:100E8700700A79038006790280027901E924FE60FD
:100E97000C14600E240270DD120FE480D812114B7F
:090EA70080D312100D80CE80CC26
:010EB000221F
:100FBA002D2D2D2D2D2D2D2D2D2D2D2D2D2D2D2D57
:100FCA000048756D69646974793A00202020200010
:0A0FDA0054656D70657261743A0091
:0C1129000A680000000000000000000048
:100E3A00EFC4540FF560EF540FF561E560C3940AEF
:100E4A00500AE5602430FF120EB18008E56024578D
:100E5A00FF120EB1E561C3940A5009E5612430FF1F
:0C0E6A00120EB122E5612457FF120EB1F8
:010E76002259
:1008F900E4F55FF55EF55DF55CF55BF55A75B5FFF9
:10090900C2B47F14FE121175D2B4E4F5B520B4FD5A
:1009190030B4FD20B4FDE4F558E4F559E4F55A3056
:10092900B4FD30B404055A80F9E55AD3940F402B2D
:10093900E55825E02468F8C000E6FC08E6FD748067
:100949007E00A859088006CEA2E713CE13D8F8FF77
:10095900EC4EFEED4FD000A60608F60559E559B450
:1009690008BA0558E558B405B0AF69120E3A7F2D9B
:10097900120EB1AF6B120E3A7F2D120EB1AF6D127E
:100989000E3A7F2D120EB1AF6F120E3A7F2D120E55
:10099900B17F2D120EB17F2D120EB17F2D120EB126
:1009A9007F2D120EB17BFF7A0F79BA120A257BFFD0
:1009B9007A0F79CB120A25AE68AF697C007D0A12DD
:1009C9000B2CEF2430FF120EB1AE68AF697C007DAD
:1009D9000A120B2CED2430FF120EB17F25120EB135
:1009E9007BFF7A0F79D5120A257BFF7A0F79DA1204
:1009F9000A25AE6CAF6D7C007D0A120B2CEF2430FA
:100A0900FF120EB1AE6CAF6D7C007D0A120B2CED9E
:0B0A19002430FF120EB17F43120EB11B
:010A240022AF
:03000000020C7679
:0C0C7600787FE4F6D8FD75817F020CBD8C
:100AFF00BB010CE58229F582E5833AF583E02250AC
:100B0F0006E92582F8E622BBFE06E92582F8E222F5
:0D0B1F00E58229F582E5833AF583E493220F
:100B2C00C2D5EC30E709B2D5E4C39DFDE49CFCEEE4
:100B3C0030E715B2D5E4C39FFFE49EFE120B7BC3D6
:100B4C00E49DFDE49CFC8003120B7B30D507C3E4D1
:060B5C009FFFE49EFE2253
:10116000E4FFFE120B62600C0FEF70010E09E970D4
:05117000F20A80EF22ED
:100C8200020646E493A3F8E493A34003F68001F23C
:100C920008DFF48029E493A3F85407240CC8C33373
:100CA200C4540F4420C8834004F456800146F6DF42
:100CB200E4800B0102040810204080901120E47EA1
:100CC200019360BCA3FF543F30E509541FFEE49337
:100CD200A360010ECF54C025E060A840B8E493A3FE
:100CE200FAE493A3F8E493A3C8C582C8CAC583CA29
:100CF200F0A3C8C582C8CAC583CADFE9DEE780BEE1
:0111350000B9
:100B6200BB010689828A83E0225002E722BBFE0291
:090B7200E32289828A83E49322C4
:100B7B00BC000BBE0029EF8DF084FFADF022E4CC5E
:100B8B00F875F008EF2FFFEE33FEEC33FCEE9DEC27
:100B9B00984005FCEE9DFE0FD5F0E9E4CEFD22ED6D
:100BAB00F8F5F0EE8420D21CFEADF075F008EF2FB7
:100BBB00FFED33FD4007985006D5F0F222C398FDA8
:050BCB000FD5F0EA2245
:00000001FF
